{
  "contracts/Moon.sol": {
    "Moon": {
      "abi": [
        {
          "inputs": [],
          "stateMutability": "nonpayable",
          "type": "constructor"
        },
        {
          "anonymous": false,
          "inputs": [
            {
              "indexed": false,
              "internalType": "uint256",
              "name": "mferCollected",
              "type": "uint256"
            },
            {
              "indexed": false,
              "internalType": "uint256",
              "name": "mferMoonBurned",
              "type": "uint256"
            },
            {
              "indexed": false,
              "internalType": "address",
              "name": "caller",
              "type": "address"
            },
            {
              "indexed": false,
              "internalType": "uint40",
              "name": "timestamp",
              "type": "uint40"
            }
          ],
          "name": "Mooned",
          "type": "event"
        },
        {
          "inputs": [],
          "name": "BURN_ADDRESS",
          "outputs": [
            {
              "internalType": "address",
              "name": "",
              "type": "address"
            }
          ],
          "stateMutability": "view",
          "type": "function"
        },
        {
          "inputs": [],
          "name": "bond",
          "outputs": [
            {
              "internalType": "contract IMCV2_Bond",
              "name": "",
              "type": "address"
            }
          ],
          "stateMutability": "view",
          "type": "function"
        },
        {
          "inputs": [
            {
              "internalType": "uint256",
              "name": "",
              "type": "uint256"
            }
          ],
          "name": "burnHistory",
          "outputs": [
            {
              "internalType": "uint40",
              "name": "timestamp",
              "type": "uint40"
            },
            {
              "internalType": "uint96",
              "name": "mferCollected",
              "type": "uint96"
            },
            {
              "internalType": "uint96",
              "name": "mferMoonBurned",
              "type": "uint96"
            },
            {
              "internalType": "address",
              "name": "caller",
              "type": "address"
            }
          ],
          "stateMutability": "view",
          "type": "function"
        },
        {
          "inputs": [],
          "name": "disableRestorable",
          "outputs": [],
          "stateMutability": "nonpayable",
          "type": "function"
        },
        {
          "inputs": [
            {
              "internalType": "uint256",
              "name": "from",
              "type": "uint256"
            },
            {
              "internalType": "uint256",
              "name": "to",
              "type": "uint256"
            }
          ],
          "name": "getHistories",
          "outputs": [
            {
              "components": [
                {
                  "internalType": "uint40",
                  "name": "timestamp",
                  "type": "uint40"
                },
                {
                  "internalType": "uint96",
                  "name": "mferCollected",
                  "type": "uint96"
                },
                {
                  "internalType": "uint96",
                  "name": "mferMoonBurned",
                  "type": "uint96"
                },
                {
                  "internalType": "address",
                  "name": "caller",
                  "type": "address"
                }
              ],
              "internalType": "struct Moon.History[]",
              "name": "",
              "type": "tuple[]"
            }
          ],
          "stateMutability": "view",
          "type": "function"
        },
        {
          "inputs": [],
          "name": "getHistoryCount",
          "outputs": [
            {
              "internalType": "uint256",
              "name": "",
              "type": "uint256"
            }
          ],
          "stateMutability": "view",
          "type": "function"
        },
        {
          "inputs": [],
          "name": "getStats",
          "outputs": [
            {
              "internalType": "uint256",
              "name": "pending",
              "type": "uint256"
            },
            {
              "internalType": "uint256",
              "name": "claimed",
              "type": "uint256"
            }
          ],
          "stateMutability": "view",
          "type": "function"
        },
        {
          "inputs": [
            {
              "internalType": "uint256",
              "name": "mferAmount",
              "type": "uint256"
            }
          ],
          "name": "getTokensForReserve",
          "outputs": [
            {
              "internalType": "uint256",
              "name": "",
              "type": "uint256"
            }
          ],
          "stateMutability": "view",
          "type": "function"
        },
        {
          "inputs": [],
          "name": "isRestorable",
          "outputs": [
            {
              "internalType": "bool",
              "name": "",
              "type": "bool"
            }
          ],
          "stateMutability": "view",
          "type": "function"
        },
        {
          "inputs": [],
          "name": "mfer",
          "outputs": [
            {
              "internalType": "contract IERC20",
              "name": "",
              "type": "address"
            }
          ],
          "stateMutability": "view",
          "type": "function"
        },
        {
          "inputs": [],
          "name": "mferMoon",
          "outputs": [
            {
              "internalType": "contract IERC20",
              "name": "",
              "type": "address"
            }
          ],
          "stateMutability": "view",
          "type": "function"
        },
        {
          "inputs": [],
          "name": "moon",
          "outputs": [],
          "stateMutability": "nonpayable",
          "type": "function"
        },
        {
          "inputs": [],
          "name": "restoreOwnership",
          "outputs": [],
          "stateMutability": "nonpayable",
          "type": "function"
        },
        {
          "inputs": [],
          "name": "totalMfermoonBurned",
          "outputs": [
            {
              "internalType": "uint256",
              "name": "",
              "type": "uint256"
            }
          ],
          "stateMutability": "view",
          "type": "function"
        }
      ],
      "evm": {
        "bytecode": {
          "linkReferences": {},
          "object": "60e06040526000805460ff1916600117905534801561001d57600080fd5b5073c5a076cad94176c2996b32d8466be1ce757faa27608081905273e3086852a4b125803c815a158249ae468a3254ca60a081905273f6f035883ef2536f0e262e592cf3acfe59f0832b60c05260405163095ea7b360e01b8152600481019290925260001960248301529063095ea7b3906044016020604051808303816000875af11580156100b0573d6000803e3d6000fd5b505050506040513d601f19601f820116820180604052508101906100d491906100da565b50610103565b6000602082840312156100ec57600080fd5b815180151581146100fc57600080fd5b9392505050565b60805160a05160c05161162c61019460003960008181610270015281816104f1015281816105b1015281816108eb0152610cc60152600081816101b1015281816109c801528181610a7c01528181610dc401528181610e7c015261109901526000818161011d0152818161051c0152818161092d015281816109f001528181610c9f01526110c6015261162c6000f3fe608060405234801561001057600080fd5b50600436106100ea5760003560e01c8063b90948511161008c578063d282469a11610066578063d282469a14610263578063e485cfd01461026b578063edcdb08814610292578063fccc28131461029b57600080fd5b8063b9094851146101db578063b991118f146101e3578063c59d48471461024657600080fd5b80638b90c31e116100c85780638b90c31e14610185578063a0e98dff1461018f578063a15e0c61146101ac578063a18861a3146101d357600080fd5b8063587c0a30146100ef57806364c9ec6f1461011857806365a948e714610164575b600080fd5b6101026100fd366004611231565b6102a4565b60405161010f9190611253565b60405180910390f35b61013f7f000000000000000000000000000000000000000000000000000000000000000081565b60405173ffffffffffffffffffffffffffffffffffffffff909116815260200161010f565b6101776101723660046112f5565b61041e565b60405190815260200161010f565b61018d610821565b005b60005461019c9060ff1681565b604051901515815260200161010f565b61013f7f000000000000000000000000000000000000000000000000000000000000000081565b600154610177565b61018d61098b565b6101f66101f13660046112f5565b610fdb565b6040805164ffffffffff9590951685526bffffffffffffffffffffffff9384166020860152919092169083015273ffffffffffffffffffffffffffffffffffffffff16606082015260800161010f565b61024e611056565b6040805192835260208301919091520161010f565b61018d611139565b61013f7f000000000000000000000000000000000000000000000000000000000000000081565b61017760025481565b61013f61dead81565b6060600083830360010167ffffffffffffffff8111156102c6576102c661130e565b60405190808252806020026020018201604052801561033657816020015b6040805160808101825260008082526020808301829052928201819052606082015282527fffffffffffffffffffffffffffffffffffffffffffffffffffffffffffffffff9092019101816102e45790505b509050835b83811161041457600154811061035357509050610418565b600181815481106103665761036661133d565b6000918252602091829020604080516080810182526002909302909101805464ffffffffff811684526bffffffffffffffffffffffff6501000000000082048116958501959095527101000000000000000000000000000000000090049093169082015260019091015473ffffffffffffffffffffffffffffffffffffffff166060820152825183908784039081106104015761040161133d565b602090810291909101015260010161033b565b5090505b92915050565b60008082116104b4576040517f08c379a000000000000000000000000000000000000000000000000000000000815260206004820152602160248201527f6d666572416d6f756e74206d7573742062652067726561746572207468616e2060448201527f300000000000000000000000000000000000000000000000000000000000000060648201526084015b60405180910390fd5b6040517f995e5f9200000000000000000000000000000000000000000000000000000000815273ffffffffffffffffffffffffffffffffffffffff7f0000000000000000000000000000000000000000000000000000000000000000811660048301526000917f00000000000000000000000000000000000000000000000000000000000000009091169063995e5f9290602401600060405180830381865afa158015610565573d6000803e3d6000fd5b505050506040513d6000823e601f3d9081017fffffffffffffffffffffffffffffffffffffffffffffffffffffffffffffffe01682016040526105ab9190810190611409565b905060007f000000000000000000000000000000000000000000000000000000000000000073ffffffffffffffffffffffffffffffffffffffff166318160ddd6040518163ffffffff1660e01b8152600401602060405180830381865afa15801561061a573d6000803e3d6000fd5b505050506040513d601f19601f8201168201806040525081019061063e91906114f0565b9050836000670de0b6b3a7640000815b8551811015610786578581815181106106695761066961133d565b6020026020010151600001516fffffffffffffffffffffffffffffffff1685101561077e578315610786576000858783815181106106a9576106a961133d565b6020026020010151600001516fffffffffffffffffffffffffffffffff166106d19190611538565b9050806000036106e1575061077e565b60008783815181106106f5576106f561133d565b6020026020010151602001516fffffffffffffffffffffffffffffffff1690506000818588610724919061154b565b61072e9190611562565b905082811161074f57610741818761159d565b955060009650505050610786565b610759838761159d565b955061076e610768838561154b565b866111e0565b6107789088611538565b96505050505b60010161064e565b5060008211610817576040517f08c379a000000000000000000000000000000000000000000000000000000000815260206004820152602760248201527f43616e6e6f74206d696e7420616e7920746f6b656e732077697468207468697360448201527f20616d6f756e740000000000000000000000000000000000000000000000000060648201526084016104ab565b5095945050505050565b3373980cd99311f3b3264f5dfdce33d204a8d6d492e4141580610847575060005460ff16155b156108ae576040517f08c379a000000000000000000000000000000000000000000000000000000000815260206004820152601160248201527f5065726d697373696f6e2064656e69656400000000000000000000000000000060448201526064016104ab565b6040517f763e7da600000000000000000000000000000000000000000000000000000000815273ffffffffffffffffffffffffffffffffffffffff7f00000000000000000000000000000000000000000000000000000000000000008116600483015273980cd99311f3b3264f5dfdce33d204a8d6d492e460248301527f0000000000000000000000000000000000000000000000000000000000000000169063763e7da690604401600060405180830381600087803b15801561097157600080fd5b505af1158015610985573d6000803e3d6000fd5b50505050565b6040517fc162c91600000000000000000000000000000000000000000000000000000000815273ffffffffffffffffffffffffffffffffffffffff7f0000000000000000000000000000000000000000000000000000000000000000811660048301527f0000000000000000000000000000000000000000000000000000000000000000169063c162c91690602401600060405180830381600087803b158015610a3457600080fd5b505af1158015610a48573d6000803e3d6000fd5b50506040517f70a08231000000000000000000000000000000000000000000000000000000008152306004820152600092507f000000000000000000000000000000000000000000000000000000000000000073ffffffffffffffffffffffffffffffffffffffff1691506370a0823190602401602060405180830381865afa158015610ad9573d6000803e3d6000fd5b505050506040513d601f19601f82011682018060405250810190610afd91906114f0565b90506000610b0c606483611562565b90506000610b1a8284611538565b90506000610b278261041e565b90508060026000828254610b3b919061159d565b90915550506040805160808101825264ffffffffff42811682526bffffffffffffffffffffffff808816602084019081528582169484019485523360608501908152600180548082018255600091909152945160029095027fb10e2d527612073b26eecdfd717e6a320cf44b4afac2b0732d9fcbe2b7fa0cf68101805493519751851671010000000000000000000000000000000000027fffffff000000000000000000000000ffffffffffffffffffffffffffffffffff9890951665010000000000027fffffffffffffffffffffffffffffff00000000000000000000000000000000009094169690951695909517919091179490941617905590517fb10e2d527612073b26eecdfd717e6a320cf44b4afac2b0732d9fcbe2b7fa0cf7909101805473ffffffffffffffffffffffffffffffffffffffff9283167fffffffffffffffffffffffff00000000000000000000000000000000000000009091161790557f00000000000000000000000000000000000000000000000000000000000000001663f74bfe8e7f000000000000000000000000000000000000000000000000000000000000000083610cf186606461159d565b6040517fffffffff0000000000000000000000000000000000000000000000000000000060e086901b16815273ffffffffffffffffffffffffffffffffffffffff90931660048401526024830191909152604482015261dead60648201526084016020604051808303816000875af1158015610d71573d6000803e3d6000fd5b505050506040513d601f19601f82011682018060405250810190610d9591906114f0565b506040517f70a082310000000000000000000000000000000000000000000000000000000081523060048201527f000000000000000000000000000000000000000000000000000000000000000073ffffffffffffffffffffffffffffffffffffffff16906370a0823190602401602060405180830381865afa158015610e20573d6000803e3d6000fd5b505050506040513d601f19601f82011682018060405250810190610e4491906114f0565b6040517fa9059cbb000000000000000000000000000000000000000000000000000000008152336004820152602481018290529093507f000000000000000000000000000000000000000000000000000000000000000073ffffffffffffffffffffffffffffffffffffffff169063a9059cbb906044016020604051808303816000875af1158015610eda573d6000803e3d6000fd5b505050506040513d601f19601f82011682018060405250810190610efe91906115b0565b610f89576040517f08c379a0000000000000000000000000000000000000000000000000000000008152602060048201526024808201527f4661696c656420746f207472616e73666572206d66657220636f6d70656e736160448201527f74696f6e0000000000000000000000000000000000000000000000000000000060648201526084016104ab565b604080518581526020810183905233818301524264ffffffffff16606082015290517fb93098931bb66f1dabc74eb4868ea23d49364c144aa18371a22ec8a69ef56f389181900360800190a150505050565b60018181548110610feb57600080fd5b60009182526020909120600290910201805460019091015464ffffffffff821692506bffffffffffffffffffffffff650100000000008304811692710100000000000000000000000000000000009004169073ffffffffffffffffffffffffffffffffffffffff1684565b6040517fac4e967500000000000000000000000000000000000000000000000000000000815230600482015273ffffffffffffffffffffffffffffffffffffffff7f00000000000000000000000000000000000000000000000000000000000000008116602483015260009182917f0000000000000000000000000000000000000000000000000000000000000000169063ac4e9675906044016040805180830381865afa15801561110c573d6000803e3d6000fd5b505050506040513d601f19601f8201168201806040525081019061113091906115d2565b90939092509050565b3373980cd99311f3b3264f5dfdce33d204a8d6d492e4146111b6576040517f08c379a000000000000000000000000000000000000000000000000000000000815260206004820152601160248201527f5065726d697373696f6e2064656e69656400000000000000000000000000000060448201526064016104ab565b600080547fffffffffffffffffffffffffffffffffffffffffffffffffffffffffffffff00169055565b6000816000036111fb576111f48284611562565b9050610418565b8215611227578161120d600185611538565b6112179190611562565b61122290600161159d565b61122a565b60005b9392505050565b6000806040838503121561124457600080fd5b50508035926020909101359150565b602080825282518282018190526000918401906040840190835b818110156112ea57835164ffffffffff81511684526bffffffffffffffffffffffff60208201511660208501526bffffffffffffffffffffffff604082015116604085015273ffffffffffffffffffffffffffffffffffffffff60608201511660608501525060808301925060208401935060018101905061126d565b509095945050505050565b60006020828403121561130757600080fd5b5035919050565b7f4e487b7100000000000000000000000000000000000000000000000000000000600052604160045260246000fd5b7f4e487b7100000000000000000000000000000000000000000000000000000000600052603260045260246000fd5b6040805190810167ffffffffffffffff8111828210171561138f5761138f61130e565b60405290565b604051601f82017fffffffffffffffffffffffffffffffffffffffffffffffffffffffffffffffe016810167ffffffffffffffff811182821017156113dc576113dc61130e565b604052919050565b80516fffffffffffffffffffffffffffffffff8116811461140457600080fd5b919050565b60006020828403121561141b57600080fd5b815167ffffffffffffffff81111561143257600080fd5b8201601f8101841361144357600080fd5b805167ffffffffffffffff81111561145d5761145d61130e565b61146c60208260051b01611395565b8082825260208201915060208360061b85010192508683111561148e57600080fd5b6020840193505b828410156114e657604084880312156114ad57600080fd5b6114b561136c565b6114be856113e4565b81526114cc602086016113e4565b602082015280835250602082019150604084019350611495565b9695505050505050565b60006020828403121561150257600080fd5b5051919050565b7f4e487b7100000000000000000000000000000000000000000000000000000000600052601160045260246000fd5b8181038181111561041857610418611509565b808202811582820484141761041857610418611509565b600082611598577f4e487b7100000000000000000000000000000000000000000000000000000000600052601260045260246000fd5b500490565b8082018082111561041857610418611509565b6000602082840312156115c257600080fd5b8151801515811461122a57600080fd5b600080604083850312156115e557600080fd5b50508051602090910151909290915056fea2646970667358221220980cfb4cb8db53001ba1b4b91eac8a7d5fecfce53fda8d3f1cc8edee47727f1964736f6c634300081c0033",
          "opcodes": "PUSH1 0xE0 PUSH1 0x40 MSTORE PUSH1 0x0 DUP1 SLOAD PUSH1 0xFF NOT AND PUSH1 0x1 OR SWAP1 SSTORE CALLVALUE DUP1 ISZERO PUSH2 0x1D JUMPI PUSH1 0x0 DUP1 REVERT JUMPDEST POP PUSH20 0xC5A076CAD94176C2996B32D8466BE1CE757FAA27 PUSH1 0x80 DUP2 SWAP1 MSTORE PUSH20 0xE3086852A4B125803C815A158249AE468A3254CA PUSH1 0xA0 DUP2 SWAP1 MSTORE PUSH20 0xF6F035883EF2536F0E262E592CF3ACFE59F0832B PUSH1 0xC0 MSTORE PUSH1 0x40 MLOAD PUSH4 0x95EA7B3 PUSH1 0xE0 SHL DUP2 MSTORE PUSH1 0x4 DUP2 ADD SWAP3 SWAP1 SWAP3 MSTORE PUSH1 0x0 NOT PUSH1 0x24 DUP4 ADD MSTORE SWAP1 PUSH4 0x95EA7B3 SWAP1 PUSH1 0x44 ADD PUSH1 0x20 PUSH1 0x40 MLOAD DUP1 DUP4 SUB DUP2 PUSH1 0x0 DUP8 GAS CALL ISZERO DUP1 ISZERO PUSH2 0xB0 JUMPI RETURNDATASIZE PUSH1 0x0 DUP1 RETURNDATACOPY RETURNDATASIZE PUSH1 0x0 REVERT JUMPDEST POP POP POP POP PUSH1 0x40 MLOAD RETURNDATASIZE PUSH1 0x1F NOT PUSH1 0x1F DUP3 ADD AND DUP3 ADD DUP1 PUSH1 0x40 MSTORE POP DUP2 ADD SWAP1 PUSH2 0xD4 SWAP2 SWAP1 PUSH2 0xDA JUMP JUMPDEST POP PUSH2 0x103 JUMP JUMPDEST PUSH1 0x0 PUSH1 0x20 DUP3 DUP5 SUB SLT ISZERO PUSH2 0xEC JUMPI PUSH1 0x0 DUP1 REVERT JUMPDEST DUP2 MLOAD DUP1 ISZERO ISZERO DUP2 EQ PUSH2 0xFC JUMPI PUSH1 0x0 DUP1 REVERT JUMPDEST SWAP4 SWAP3 POP POP POP JUMP JUMPDEST PUSH1 0x80 MLOAD PUSH1 0xA0 MLOAD PUSH1 0xC0 MLOAD PUSH2 0x162C PUSH2 0x194 PUSH1 0x0 CODECOPY PUSH1 0x0 DUP2 DUP2 PUSH2 0x270 ADD MSTORE DUP2 DUP2 PUSH2 0x4F1 ADD MSTORE DUP2 DUP2 PUSH2 0x5B1 ADD MSTORE DUP2 DUP2 PUSH2 0x8EB ADD MSTORE PUSH2 0xCC6 ADD MSTORE PUSH1 0x0 DUP2 DUP2 PUSH2 0x1B1 ADD MSTORE DUP2 DUP2 PUSH2 0x9C8 ADD MSTORE DUP2 DUP2 PUSH2 0xA7C ADD MSTORE DUP2 DUP2 PUSH2 0xDC4 ADD MSTORE DUP2 DUP2 PUSH2 0xE7C ADD MSTORE PUSH2 0x1099 ADD MSTORE PUSH1 0x0 DUP2 DUP2 PUSH2 0x11D ADD MSTORE DUP2 DUP2 PUSH2 0x51C ADD MSTORE DUP2 DUP2 PUSH2 0x92D ADD MSTORE DUP2 DUP2 PUSH2 0x9F0 ADD MSTORE DUP2 DUP2 PUSH2 0xC9F ADD MSTORE PUSH2 0x10C6 ADD MSTORE PUSH2 0x162C PUSH1 0x0 RETURN INVALID PUSH1 0x80 PUSH1 0x40 MSTORE CALLVALUE DUP1 ISZERO PUSH2 0x10 JUMPI PUSH1 0x0 DUP1 REVERT JUMPDEST POP PUSH1 0x4 CALLDATASIZE LT PUSH2 0xEA JUMPI PUSH1 0x0 CALLDATALOAD PUSH1 0xE0 SHR DUP1 PUSH4 0xB9094851 GT PUSH2 0x8C JUMPI DUP1 PUSH4 0xD282469A GT PUSH2 0x66 JUMPI DUP1 PUSH4 0xD282469A EQ PUSH2 0x263 JUMPI DUP1 PUSH4 0xE485CFD0 EQ PUSH2 0x26B JUMPI DUP1 PUSH4 0xEDCDB088 EQ PUSH2 0x292 JUMPI DUP1 PUSH4 0xFCCC2813 EQ PUSH2 0x29B JUMPI PUSH1 0x0 DUP1 REVERT JUMPDEST DUP1 PUSH4 0xB9094851 EQ PUSH2 0x1DB JUMPI DUP1 PUSH4 0xB991118F EQ PUSH2 0x1E3 JUMPI DUP1 PUSH4 0xC59D4847 EQ PUSH2 0x246 JUMPI PUSH1 0x0 DUP1 REVERT JUMPDEST DUP1 PUSH4 0x8B90C31E GT PUSH2 0xC8 JUMPI DUP1 PUSH4 0x8B90C31E EQ PUSH2 0x185 JUMPI DUP1 PUSH4 0xA0E98DFF EQ PUSH2 0x18F JUMPI DUP1 PUSH4 0xA15E0C61 EQ PUSH2 0x1AC JUMPI DUP1 PUSH4 0xA18861A3 EQ PUSH2 0x1D3 JUMPI PUSH1 0x0 DUP1 REVERT JUMPDEST DUP1 PUSH4 0x587C0A30 EQ PUSH2 0xEF JUMPI DUP1 PUSH4 0x64C9EC6F EQ PUSH2 0x118 JUMPI DUP1 PUSH4 0x65A948E7 EQ PUSH2 0x164 JUMPI JUMPDEST PUSH1 0x0 DUP1 REVERT JUMPDEST PUSH2 0x102 PUSH2 0xFD CALLDATASIZE PUSH1 0x4 PUSH2 0x1231 JUMP JUMPDEST PUSH2 0x2A4 JUMP JUMPDEST PUSH1 0x40 MLOAD PUSH2 0x10F SWAP2 SWAP1 PUSH2 0x1253 JUMP JUMPDEST PUSH1 0x40 MLOAD DUP1 SWAP2 SUB SWAP1 RETURN JUMPDEST PUSH2 0x13F PUSH32 0x0 DUP2 JUMP JUMPDEST PUSH1 0x40 MLOAD PUSH20 0xFFFFFFFFFFFFFFFFFFFFFFFFFFFFFFFFFFFFFFFF SWAP1 SWAP2 AND DUP2 MSTORE PUSH1 0x20 ADD PUSH2 0x10F JUMP JUMPDEST PUSH2 0x177 PUSH2 0x172 CALLDATASIZE PUSH1 0x4 PUSH2 0x12F5 JUMP JUMPDEST PUSH2 0x41E JUMP JUMPDEST PUSH1 0x40 MLOAD SWAP1 DUP2 MSTORE PUSH1 0x20 ADD PUSH2 0x10F JUMP JUMPDEST PUSH2 0x18D PUSH2 0x821 JUMP JUMPDEST STOP JUMPDEST PUSH1 0x0 SLOAD PUSH2 0x19C SWAP1 PUSH1 0xFF AND DUP2 JUMP JUMPDEST PUSH1 0x40 MLOAD SWAP1 ISZERO ISZERO DUP2 MSTORE PUSH1 0x20 ADD PUSH2 0x10F JUMP JUMPDEST PUSH2 0x13F PUSH32 0x0 DUP2 JUMP JUMPDEST PUSH1 0x1 SLOAD PUSH2 0x177 JUMP JUMPDEST PUSH2 0x18D PUSH2 0x98B JUMP JUMPDEST PUSH2 0x1F6 PUSH2 0x1F1 CALLDATASIZE PUSH1 0x4 PUSH2 0x12F5 JUMP JUMPDEST PUSH2 0xFDB JUMP JUMPDEST PUSH1 0x40 DUP1 MLOAD PUSH5 0xFFFFFFFFFF SWAP6 SWAP1 SWAP6 AND DUP6 MSTORE PUSH12 0xFFFFFFFFFFFFFFFFFFFFFFFF SWAP4 DUP5 AND PUSH1 0x20 DUP7 ADD MSTORE SWAP2 SWAP1 SWAP3 AND SWAP1 DUP4 ADD MSTORE PUSH20 0xFFFFFFFFFFFFFFFFFFFFFFFFFFFFFFFFFFFFFFFF AND PUSH1 0x60 DUP3 ADD MSTORE PUSH1 0x80 ADD PUSH2 0x10F JUMP JUMPDEST PUSH2 0x24E PUSH2 0x1056 JUMP JUMPDEST PUSH1 0x40 DUP1 MLOAD SWAP3 DUP4 MSTORE PUSH1 0x20 DUP4 ADD SWAP2 SWAP1 SWAP2 MSTORE ADD PUSH2 0x10F JUMP JUMPDEST PUSH2 0x18D PUSH2 0x1139 JUMP JUMPDEST PUSH2 0x13F PUSH32 0x0 DUP2 JUMP JUMPDEST PUSH2 0x177 PUSH1 0x2 SLOAD DUP2 JUMP JUMPDEST PUSH2 0x13F PUSH2 0xDEAD DUP2 JUMP JUMPDEST PUSH1 0x60 PUSH1 0x0 DUP4 DUP4 SUB PUSH1 0x1 ADD PUSH8 0xFFFFFFFFFFFFFFFF DUP2 GT ISZERO PUSH2 0x2C6 JUMPI PUSH2 0x2C6 PUSH2 0x130E JUMP JUMPDEST PUSH1 0x40 MLOAD SWAP1 DUP1 DUP3 MSTORE DUP1 PUSH1 0x20 MUL PUSH1 0x20 ADD DUP3 ADD PUSH1 0x40 MSTORE DUP1 ISZERO PUSH2 0x336 JUMPI DUP2 PUSH1 0x20 ADD JUMPDEST PUSH1 0x40 DUP1 MLOAD PUSH1 0x80 DUP2 ADD DUP3 MSTORE PUSH1 0x0 DUP1 DUP3 MSTORE PUSH1 0x20 DUP1 DUP4 ADD DUP3 SWAP1 MSTORE SWAP3 DUP3 ADD DUP2 SWAP1 MSTORE PUSH1 0x60 DUP3 ADD MSTORE DUP3 MSTORE PUSH32 0xFFFFFFFFFFFFFFFFFFFFFFFFFFFFFFFFFFFFFFFFFFFFFFFFFFFFFFFFFFFFFFFF SWAP1 SWAP3 ADD SWAP2 ADD DUP2 PUSH2 0x2E4 JUMPI SWAP1 POP JUMPDEST POP SWAP1 POP DUP4 JUMPDEST DUP4 DUP2 GT PUSH2 0x414 JUMPI PUSH1 0x1 SLOAD DUP2 LT PUSH2 0x353 JUMPI POP SWAP1 POP PUSH2 0x418 JUMP JUMPDEST PUSH1 0x1 DUP2 DUP2 SLOAD DUP2 LT PUSH2 0x366 JUMPI PUSH2 0x366 PUSH2 0x133D JUMP JUMPDEST PUSH1 0x0 SWAP2 DUP3 MSTORE PUSH1 0x20 SWAP2 DUP3 SWAP1 KECCAK256 PUSH1 0x40 DUP1 MLOAD PUSH1 0x80 DUP2 ADD DUP3 MSTORE PUSH1 0x2 SWAP1 SWAP4 MUL SWAP1 SWAP2 ADD DUP1 SLOAD PUSH5 0xFFFFFFFFFF DUP2 AND DUP5 MSTORE PUSH12 0xFFFFFFFFFFFFFFFFFFFFFFFF PUSH6 0x10000000000 DUP3 DIV DUP2 AND SWAP6 DUP6 ADD SWAP6 SWAP1 SWAP6 MSTORE PUSH18 0x10000000000000000000000000000000000 SWAP1 DIV SWAP1 SWAP4 AND SWAP1 DUP3 ADD MSTORE PUSH1 0x1 SWAP1 SWAP2 ADD SLOAD PUSH20 0xFFFFFFFFFFFFFFFFFFFFFFFFFFFFFFFFFFFFFFFF AND PUSH1 0x60 DUP3 ADD MSTORE DUP3 MLOAD DUP4 SWAP1 DUP8 DUP5 SUB SWAP1 DUP2 LT PUSH2 0x401 JUMPI PUSH2 0x401 PUSH2 0x133D JUMP JUMPDEST PUSH1 0x20 SWAP1 DUP2 MUL SWAP2 SWAP1 SWAP2 ADD ADD MSTORE PUSH1 0x1 ADD PUSH2 0x33B JUMP JUMPDEST POP SWAP1 POP JUMPDEST SWAP3 SWAP2 POP POP JUMP JUMPDEST PUSH1 0x0 DUP1 DUP3 GT PUSH2 0x4B4 JUMPI PUSH1 0x40 MLOAD PUSH32 0x8C379A000000000000000000000000000000000000000000000000000000000 DUP2 MSTORE PUSH1 0x20 PUSH1 0x4 DUP3 ADD MSTORE PUSH1 0x21 PUSH1 0x24 DUP3 ADD MSTORE PUSH32 0x6D666572416D6F756E74206D7573742062652067726561746572207468616E20 PUSH1 0x44 DUP3 ADD MSTORE PUSH32 0x3000000000000000000000000000000000000000000000000000000000000000 PUSH1 0x64 DUP3 ADD MSTORE PUSH1 0x84 ADD JUMPDEST PUSH1 0x40 MLOAD DUP1 SWAP2 SUB SWAP1 REVERT JUMPDEST PUSH1 0x40 MLOAD PUSH32 0x995E5F9200000000000000000000000000000000000000000000000000000000 DUP2 MSTORE PUSH20 0xFFFFFFFFFFFFFFFFFFFFFFFFFFFFFFFFFFFFFFFF PUSH32 0x0 DUP2 AND PUSH1 0x4 DUP4 ADD MSTORE PUSH1 0x0 SWAP2 PUSH32 0x0 SWAP1 SWAP2 AND SWAP1 PUSH4 0x995E5F92 SWAP1 PUSH1 0x24 ADD PUSH1 0x0 PUSH1 0x40 MLOAD DUP1 DUP4 SUB DUP2 DUP7 GAS STATICCALL ISZERO DUP1 ISZERO PUSH2 0x565 JUMPI RETURNDATASIZE PUSH1 0x0 DUP1 RETURNDATACOPY RETURNDATASIZE PUSH1 0x0 REVERT JUMPDEST POP POP POP POP PUSH1 0x40 MLOAD RETURNDATASIZE PUSH1 0x0 DUP3 RETURNDATACOPY PUSH1 0x1F RETURNDATASIZE SWAP1 DUP2 ADD PUSH32 0xFFFFFFFFFFFFFFFFFFFFFFFFFFFFFFFFFFFFFFFFFFFFFFFFFFFFFFFFFFFFFFE0 AND DUP3 ADD PUSH1 0x40 MSTORE PUSH2 0x5AB SWAP2 SWAP1 DUP2 ADD SWAP1 PUSH2 0x1409 JUMP JUMPDEST SWAP1 POP PUSH1 0x0 PUSH32 0x0 PUSH20 0xFFFFFFFFFFFFFFFFFFFFFFFFFFFFFFFFFFFFFFFF AND PUSH4 0x18160DDD PUSH1 0x40 MLOAD DUP2 PUSH4 0xFFFFFFFF AND PUSH1 0xE0 SHL DUP2 MSTORE PUSH1 0x4 ADD PUSH1 0x20 PUSH1 0x40 MLOAD DUP1 DUP4 SUB DUP2 DUP7 GAS STATICCALL ISZERO DUP1 ISZERO PUSH2 0x61A JUMPI RETURNDATASIZE PUSH1 0x0 DUP1 RETURNDATACOPY RETURNDATASIZE PUSH1 0x0 REVERT JUMPDEST POP POP POP POP PUSH1 0x40 MLOAD RETURNDATASIZE PUSH1 0x1F NOT PUSH1 0x1F DUP3 ADD AND DUP3 ADD DUP1 PUSH1 0x40 MSTORE POP DUP2 ADD SWAP1 PUSH2 0x63E SWAP2 SWAP1 PUSH2 0x14F0 JUMP JUMPDEST SWAP1 POP DUP4 PUSH1 0x0 PUSH8 0xDE0B6B3A7640000 DUP2 JUMPDEST DUP6 MLOAD DUP2 LT ISZERO PUSH2 0x786 JUMPI DUP6 DUP2 DUP2 MLOAD DUP2 LT PUSH2 0x669 JUMPI PUSH2 0x669 PUSH2 0x133D JUMP JUMPDEST PUSH1 0x20 MUL PUSH1 0x20 ADD ADD MLOAD PUSH1 0x0 ADD MLOAD PUSH16 0xFFFFFFFFFFFFFFFFFFFFFFFFFFFFFFFF AND DUP6 LT ISZERO PUSH2 0x77E JUMPI DUP4 ISZERO PUSH2 0x786 JUMPI PUSH1 0x0 DUP6 DUP8 DUP4 DUP2 MLOAD DUP2 LT PUSH2 0x6A9 JUMPI PUSH2 0x6A9 PUSH2 0x133D JUMP JUMPDEST PUSH1 0x20 MUL PUSH1 0x20 ADD ADD MLOAD PUSH1 0x0 ADD MLOAD PUSH16 0xFFFFFFFFFFFFFFFFFFFFFFFFFFFFFFFF AND PUSH2 0x6D1 SWAP2 SWAP1 PUSH2 0x1538 JUMP JUMPDEST SWAP1 POP DUP1 PUSH1 0x0 SUB PUSH2 0x6E1 JUMPI POP PUSH2 0x77E JUMP JUMPDEST PUSH1 0x0 DUP8 DUP4 DUP2 MLOAD DUP2 LT PUSH2 0x6F5 JUMPI PUSH2 0x6F5 PUSH2 0x133D JUMP JUMPDEST PUSH1 0x20 MUL PUSH1 0x20 ADD ADD MLOAD PUSH1 0x20 ADD MLOAD PUSH16 0xFFFFFFFFFFFFFFFFFFFFFFFFFFFFFFFF AND SWAP1 POP PUSH1 0x0 DUP2 DUP6 DUP9 PUSH2 0x724 SWAP2 SWAP1 PUSH2 0x154B JUMP JUMPDEST PUSH2 0x72E SWAP2 SWAP1 PUSH2 0x1562 JUMP JUMPDEST SWAP1 POP DUP3 DUP2 GT PUSH2 0x74F JUMPI PUSH2 0x741 DUP2 DUP8 PUSH2 0x159D JUMP JUMPDEST SWAP6 POP PUSH1 0x0 SWAP7 POP POP POP POP PUSH2 0x786 JUMP JUMPDEST PUSH2 0x759 DUP4 DUP8 PUSH2 0x159D JUMP JUMPDEST SWAP6 POP PUSH2 0x76E PUSH2 0x768 DUP4 DUP6 PUSH2 0x154B JUMP JUMPDEST DUP7 PUSH2 0x11E0 JUMP JUMPDEST PUSH2 0x778 SWAP1 DUP9 PUSH2 0x1538 JUMP JUMPDEST SWAP7 POP POP POP POP JUMPDEST PUSH1 0x1 ADD PUSH2 0x64E JUMP JUMPDEST POP PUSH1 0x0 DUP3 GT PUSH2 0x817 JUMPI PUSH1 0x40 MLOAD PUSH32 0x8C379A000000000000000000000000000000000000000000000000000000000 DUP2 MSTORE PUSH1 0x20 PUSH1 0x4 DUP3 ADD MSTORE PUSH1 0x27 PUSH1 0x24 DUP3 ADD MSTORE PUSH32 0x43616E6E6F74206D696E7420616E7920746F6B656E7320776974682074686973 PUSH1 0x44 DUP3 ADD MSTORE PUSH32 0x20616D6F756E7400000000000000000000000000000000000000000000000000 PUSH1 0x64 DUP3 ADD MSTORE PUSH1 0x84 ADD PUSH2 0x4AB JUMP JUMPDEST POP SWAP6 SWAP5 POP POP POP POP POP JUMP JUMPDEST CALLER PUSH20 0x980CD99311F3B3264F5DFDCE33D204A8D6D492E4 EQ ISZERO DUP1 PUSH2 0x847 JUMPI POP PUSH1 0x0 SLOAD PUSH1 0xFF AND ISZERO JUMPDEST ISZERO PUSH2 0x8AE JUMPI PUSH1 0x40 MLOAD PUSH32 0x8C379A000000000000000000000000000000000000000000000000000000000 DUP2 MSTORE PUSH1 0x20 PUSH1 0x4 DUP3 ADD MSTORE PUSH1 0x11 PUSH1 0x24 DUP3 ADD MSTORE PUSH32 0x5065726D697373696F6E2064656E696564000000000000000000000000000000 PUSH1 0x44 DUP3 ADD MSTORE PUSH1 0x64 ADD PUSH2 0x4AB JUMP JUMPDEST PUSH1 0x40 MLOAD PUSH32 0x763E7DA600000000000000000000000000000000000000000000000000000000 DUP2 MSTORE PUSH20 0xFFFFFFFFFFFFFFFFFFFFFFFFFFFFFFFFFFFFFFFF PUSH32 0x0 DUP2 AND PUSH1 0x4 DUP4 ADD MSTORE PUSH20 0x980CD99311F3B3264F5DFDCE33D204A8D6D492E4 PUSH1 0x24 DUP4 ADD MSTORE PUSH32 0x0 AND SWAP1 PUSH4 0x763E7DA6 SWAP1 PUSH1 0x44 ADD PUSH1 0x0 PUSH1 0x40 MLOAD DUP1 DUP4 SUB DUP2 PUSH1 0x0 DUP8 DUP1 EXTCODESIZE ISZERO DUP1 ISZERO PUSH2 0x971 JUMPI PUSH1 0x0 DUP1 REVERT JUMPDEST POP GAS CALL ISZERO DUP1 ISZERO PUSH2 0x985 JUMPI RETURNDATASIZE PUSH1 0x0 DUP1 RETURNDATACOPY RETURNDATASIZE PUSH1 0x0 REVERT JUMPDEST POP POP POP POP JUMP JUMPDEST PUSH1 0x40 MLOAD PUSH32 0xC162C91600000000000000000000000000000000000000000000000000000000 DUP2 MSTORE PUSH20 0xFFFFFFFFFFFFFFFFFFFFFFFFFFFFFFFFFFFFFFFF PUSH32 0x0 DUP2 AND PUSH1 0x4 DUP4 ADD MSTORE PUSH32 0x0 AND SWAP1 PUSH4 0xC162C916 SWAP1 PUSH1 0x24 ADD PUSH1 0x0 PUSH1 0x40 MLOAD DUP1 DUP4 SUB DUP2 PUSH1 0x0 DUP8 DUP1 EXTCODESIZE ISZERO DUP1 ISZERO PUSH2 0xA34 JUMPI PUSH1 0x0 DUP1 REVERT JUMPDEST POP GAS CALL ISZERO DUP1 ISZERO PUSH2 0xA48 JUMPI RETURNDATASIZE PUSH1 0x0 DUP1 RETURNDATACOPY RETURNDATASIZE PUSH1 0x0 REVERT JUMPDEST POP POP PUSH1 0x40 MLOAD PUSH32 0x70A0823100000000000000000000000000000000000000000000000000000000 DUP2 MSTORE ADDRESS PUSH1 0x4 DUP3 ADD MSTORE PUSH1 0x0 SWAP3 POP PUSH32 0x0 PUSH20 0xFFFFFFFFFFFFFFFFFFFFFFFFFFFFFFFFFFFFFFFF AND SWAP2 POP PUSH4 0x70A08231 SWAP1 PUSH1 0x24 ADD PUSH1 0x20 PUSH1 0x40 MLOAD DUP1 DUP4 SUB DUP2 DUP7 GAS STATICCALL ISZERO DUP1 ISZERO PUSH2 0xAD9 JUMPI RETURNDATASIZE PUSH1 0x0 DUP1 RETURNDATACOPY RETURNDATASIZE PUSH1 0x0 REVERT JUMPDEST POP POP POP POP PUSH1 0x40 MLOAD RETURNDATASIZE PUSH1 0x1F NOT PUSH1 0x1F DUP3 ADD AND DUP3 ADD DUP1 PUSH1 0x40 MSTORE POP DUP2 ADD SWAP1 PUSH2 0xAFD SWAP2 SWAP1 PUSH2 0x14F0 JUMP JUMPDEST SWAP1 POP PUSH1 0x0 PUSH2 0xB0C PUSH1 0x64 DUP4 PUSH2 0x1562 JUMP JUMPDEST SWAP1 POP PUSH1 0x0 PUSH2 0xB1A DUP3 DUP5 PUSH2 0x1538 JUMP JUMPDEST SWAP1 POP PUSH1 0x0 PUSH2 0xB27 DUP3 PUSH2 0x41E JUMP JUMPDEST SWAP1 POP DUP1 PUSH1 0x2 PUSH1 0x0 DUP3 DUP3 SLOAD PUSH2 0xB3B SWAP2 SWAP1 PUSH2 0x159D JUMP JUMPDEST SWAP1 SWAP2 SSTORE POP POP PUSH1 0x40 DUP1 MLOAD PUSH1 0x80 DUP2 ADD DUP3 MSTORE PUSH5 0xFFFFFFFFFF TIMESTAMP DUP2 AND DUP3 MSTORE PUSH12 0xFFFFFFFFFFFFFFFFFFFFFFFF DUP1 DUP9 AND PUSH1 0x20 DUP5 ADD SWAP1 DUP2 MSTORE DUP6 DUP3 AND SWAP5 DUP5 ADD SWAP5 DUP6 MSTORE CALLER PUSH1 0x60 DUP6 ADD SWAP1 DUP2 MSTORE PUSH1 0x1 DUP1 SLOAD DUP1 DUP3 ADD DUP3 SSTORE PUSH1 0x0 SWAP2 SWAP1 SWAP2 MSTORE SWAP5 MLOAD PUSH1 0x2 SWAP1 SWAP6 MUL PUSH32 0xB10E2D527612073B26EECDFD717E6A320CF44B4AFAC2B0732D9FCBE2B7FA0CF6 DUP2 ADD DUP1 SLOAD SWAP4 MLOAD SWAP8 MLOAD DUP6 AND PUSH18 0x10000000000000000000000000000000000 MUL PUSH32 0xFFFFFF000000000000000000000000FFFFFFFFFFFFFFFFFFFFFFFFFFFFFFFFFF SWAP9 SWAP1 SWAP6 AND PUSH6 0x10000000000 MUL PUSH32 0xFFFFFFFFFFFFFFFFFFFFFFFFFFFFFF0000000000000000000000000000000000 SWAP1 SWAP5 AND SWAP7 SWAP1 SWAP6 AND SWAP6 SWAP1 SWAP6 OR SWAP2 SWAP1 SWAP2 OR SWAP5 SWAP1 SWAP5 AND OR SWAP1 SSTORE SWAP1 MLOAD PUSH32 0xB10E2D527612073B26EECDFD717E6A320CF44B4AFAC2B0732D9FCBE2B7FA0CF7 SWAP1 SWAP2 ADD DUP1 SLOAD PUSH20 0xFFFFFFFFFFFFFFFFFFFFFFFFFFFFFFFFFFFFFFFF SWAP3 DUP4 AND PUSH32 0xFFFFFFFFFFFFFFFFFFFFFFFF0000000000000000000000000000000000000000 SWAP1 SWAP2 AND OR SWAP1 SSTORE PUSH32 0x0 AND PUSH4 0xF74BFE8E PUSH32 0x0 DUP4 PUSH2 0xCF1 DUP7 PUSH1 0x64 PUSH2 0x159D JUMP JUMPDEST PUSH1 0x40 MLOAD PUSH32 0xFFFFFFFF00000000000000000000000000000000000000000000000000000000 PUSH1 0xE0 DUP7 SWAP1 SHL AND DUP2 MSTORE PUSH20 0xFFFFFFFFFFFFFFFFFFFFFFFFFFFFFFFFFFFFFFFF SWAP1 SWAP4 AND PUSH1 0x4 DUP5 ADD MSTORE PUSH1 0x24 DUP4 ADD SWAP2 SWAP1 SWAP2 MSTORE PUSH1 0x44 DUP3 ADD MSTORE PUSH2 0xDEAD PUSH1 0x64 DUP3 ADD MSTORE PUSH1 0x84 ADD PUSH1 0x20 PUSH1 0x40 MLOAD DUP1 DUP4 SUB DUP2 PUSH1 0x0 DUP8 GAS CALL ISZERO DUP1 ISZERO PUSH2 0xD71 JUMPI RETURNDATASIZE PUSH1 0x0 DUP1 RETURNDATACOPY RETURNDATASIZE PUSH1 0x0 REVERT JUMPDEST POP POP POP POP PUSH1 0x40 MLOAD RETURNDATASIZE PUSH1 0x1F NOT PUSH1 0x1F DUP3 ADD AND DUP3 ADD DUP1 PUSH1 0x40 MSTORE POP DUP2 ADD SWAP1 PUSH2 0xD95 SWAP2 SWAP1 PUSH2 0x14F0 JUMP JUMPDEST POP PUSH1 0x40 MLOAD PUSH32 0x70A0823100000000000000000000000000000000000000000000000000000000 DUP2 MSTORE ADDRESS PUSH1 0x4 DUP3 ADD MSTORE PUSH32 0x0 PUSH20 0xFFFFFFFFFFFFFFFFFFFFFFFFFFFFFFFFFFFFFFFF AND SWAP1 PUSH4 0x70A08231 SWAP1 PUSH1 0x24 ADD PUSH1 0x20 PUSH1 0x40 MLOAD DUP1 DUP4 SUB DUP2 DUP7 GAS STATICCALL ISZERO DUP1 ISZERO PUSH2 0xE20 JUMPI RETURNDATASIZE PUSH1 0x0 DUP1 RETURNDATACOPY RETURNDATASIZE PUSH1 0x0 REVERT JUMPDEST POP POP POP POP PUSH1 0x40 MLOAD RETURNDATASIZE PUSH1 0x1F NOT PUSH1 0x1F DUP3 ADD AND DUP3 ADD DUP1 PUSH1 0x40 MSTORE POP DUP2 ADD SWAP1 PUSH2 0xE44 SWAP2 SWAP1 PUSH2 0x14F0 JUMP JUMPDEST PUSH1 0x40 MLOAD PUSH32 0xA9059CBB00000000000000000000000000000000000000000000000000000000 DUP2 MSTORE CALLER PUSH1 0x4 DUP3 ADD MSTORE PUSH1 0x24 DUP2 ADD DUP3 SWAP1 MSTORE SWAP1 SWAP4 POP PUSH32 0x0 PUSH20 0xFFFFFFFFFFFFFFFFFFFFFFFFFFFFFFFFFFFFFFFF AND SWAP1 PUSH4 0xA9059CBB SWAP1 PUSH1 0x44 ADD PUSH1 0x20 PUSH1 0x40 MLOAD DUP1 DUP4 SUB DUP2 PUSH1 0x0 DUP8 GAS CALL ISZERO DUP1 ISZERO PUSH2 0xEDA JUMPI RETURNDATASIZE PUSH1 0x0 DUP1 RETURNDATACOPY RETURNDATASIZE PUSH1 0x0 REVERT JUMPDEST POP POP POP POP PUSH1 0x40 MLOAD RETURNDATASIZE PUSH1 0x1F NOT PUSH1 0x1F DUP3 ADD AND DUP3 ADD DUP1 PUSH1 0x40 MSTORE POP DUP2 ADD SWAP1 PUSH2 0xEFE SWAP2 SWAP1 PUSH2 0x15B0 JUMP JUMPDEST PUSH2 0xF89 JUMPI PUSH1 0x40 MLOAD PUSH32 0x8C379A000000000000000000000000000000000000000000000000000000000 DUP2 MSTORE PUSH1 0x20 PUSH1 0x4 DUP3 ADD MSTORE PUSH1 0x24 DUP1 DUP3 ADD MSTORE PUSH32 0x4661696C656420746F207472616E73666572206D66657220636F6D70656E7361 PUSH1 0x44 DUP3 ADD MSTORE PUSH32 0x74696F6E00000000000000000000000000000000000000000000000000000000 PUSH1 0x64 DUP3 ADD MSTORE PUSH1 0x84 ADD PUSH2 0x4AB JUMP JUMPDEST PUSH1 0x40 DUP1 MLOAD DUP6 DUP2 MSTORE PUSH1 0x20 DUP2 ADD DUP4 SWAP1 MSTORE CALLER DUP2 DUP4 ADD MSTORE TIMESTAMP PUSH5 0xFFFFFFFFFF AND PUSH1 0x60 DUP3 ADD MSTORE SWAP1 MLOAD PUSH32 0xB93098931BB66F1DABC74EB4868EA23D49364C144AA18371A22EC8A69EF56F38 SWAP2 DUP2 SWAP1 SUB PUSH1 0x80 ADD SWAP1 LOG1 POP POP POP POP JUMP JUMPDEST PUSH1 0x1 DUP2 DUP2 SLOAD DUP2 LT PUSH2 0xFEB JUMPI PUSH1 0x0 DUP1 REVERT JUMPDEST PUSH1 0x0 SWAP2 DUP3 MSTORE PUSH1 0x20 SWAP1 SWAP2 KECCAK256 PUSH1 0x2 SWAP1 SWAP2 MUL ADD DUP1 SLOAD PUSH1 0x1 SWAP1 SWAP2 ADD SLOAD PUSH5 0xFFFFFFFFFF DUP3 AND SWAP3 POP PUSH12 0xFFFFFFFFFFFFFFFFFFFFFFFF PUSH6 0x10000000000 DUP4 DIV DUP2 AND SWAP3 PUSH18 0x10000000000000000000000000000000000 SWAP1 DIV AND SWAP1 PUSH20 0xFFFFFFFFFFFFFFFFFFFFFFFFFFFFFFFFFFFFFFFF AND DUP5 JUMP JUMPDEST PUSH1 0x40 MLOAD PUSH32 0xAC4E967500000000000000000000000000000000000000000000000000000000 DUP2 MSTORE ADDRESS PUSH1 0x4 DUP3 ADD MSTORE PUSH20 0xFFFFFFFFFFFFFFFFFFFFFFFFFFFFFFFFFFFFFFFF PUSH32 0x0 DUP2 AND PUSH1 0x24 DUP4 ADD MSTORE PUSH1 0x0 SWAP2 DUP3 SWAP2 PUSH32 0x0 AND SWAP1 PUSH4 0xAC4E9675 SWAP1 PUSH1 0x44 ADD PUSH1 0x40 DUP1 MLOAD DUP1 DUP4 SUB DUP2 DUP7 GAS STATICCALL ISZERO DUP1 ISZERO PUSH2 0x110C JUMPI RETURNDATASIZE PUSH1 0x0 DUP1 RETURNDATACOPY RETURNDATASIZE PUSH1 0x0 REVERT JUMPDEST POP POP POP POP PUSH1 0x40 MLOAD RETURNDATASIZE PUSH1 0x1F NOT PUSH1 0x1F DUP3 ADD AND DUP3 ADD DUP1 PUSH1 0x40 MSTORE POP DUP2 ADD SWAP1 PUSH2 0x1130 SWAP2 SWAP1 PUSH2 0x15D2 JUMP JUMPDEST SWAP1 SWAP4 SWAP1 SWAP3 POP SWAP1 POP JUMP JUMPDEST CALLER PUSH20 0x980CD99311F3B3264F5DFDCE33D204A8D6D492E4 EQ PUSH2 0x11B6 JUMPI PUSH1 0x40 MLOAD PUSH32 0x8C379A000000000000000000000000000000000000000000000000000000000 DUP2 MSTORE PUSH1 0x20 PUSH1 0x4 DUP3 ADD MSTORE PUSH1 0x11 PUSH1 0x24 DUP3 ADD MSTORE PUSH32 0x5065726D697373696F6E2064656E696564000000000000000000000000000000 PUSH1 0x44 DUP3 ADD MSTORE PUSH1 0x64 ADD PUSH2 0x4AB JUMP JUMPDEST PUSH1 0x0 DUP1 SLOAD PUSH32 0xFFFFFFFFFFFFFFFFFFFFFFFFFFFFFFFFFFFFFFFFFFFFFFFFFFFFFFFFFFFFFF00 AND SWAP1 SSTORE JUMP JUMPDEST PUSH1 0x0 DUP2 PUSH1 0x0 SUB PUSH2 0x11FB JUMPI PUSH2 0x11F4 DUP3 DUP5 PUSH2 0x1562 JUMP JUMPDEST SWAP1 POP PUSH2 0x418 JUMP JUMPDEST DUP3 ISZERO PUSH2 0x1227 JUMPI DUP2 PUSH2 0x120D PUSH1 0x1 DUP6 PUSH2 0x1538 JUMP JUMPDEST PUSH2 0x1217 SWAP2 SWAP1 PUSH2 0x1562 JUMP JUMPDEST PUSH2 0x1222 SWAP1 PUSH1 0x1 PUSH2 0x159D JUMP JUMPDEST PUSH2 0x122A JUMP JUMPDEST PUSH1 0x0 JUMPDEST SWAP4 SWAP3 POP POP POP JUMP JUMPDEST PUSH1 0x0 DUP1 PUSH1 0x40 DUP4 DUP6 SUB SLT ISZERO PUSH2 0x1244 JUMPI PUSH1 0x0 DUP1 REVERT JUMPDEST POP POP DUP1 CALLDATALOAD SWAP3 PUSH1 0x20 SWAP1 SWAP2 ADD CALLDATALOAD SWAP2 POP JUMP JUMPDEST PUSH1 0x20 DUP1 DUP3 MSTORE DUP3 MLOAD DUP3 DUP3 ADD DUP2 SWAP1 MSTORE PUSH1 0x0 SWAP2 DUP5 ADD SWAP1 PUSH1 0x40 DUP5 ADD SWAP1 DUP4 JUMPDEST DUP2 DUP2 LT ISZERO PUSH2 0x12EA JUMPI DUP4 MLOAD PUSH5 0xFFFFFFFFFF DUP2 MLOAD AND DUP5 MSTORE PUSH12 0xFFFFFFFFFFFFFFFFFFFFFFFF PUSH1 0x20 DUP3 ADD MLOAD AND PUSH1 0x20 DUP6 ADD MSTORE PUSH12 0xFFFFFFFFFFFFFFFFFFFFFFFF PUSH1 0x40 DUP3 ADD MLOAD AND PUSH1 0x40 DUP6 ADD MSTORE PUSH20 0xFFFFFFFFFFFFFFFFFFFFFFFFFFFFFFFFFFFFFFFF PUSH1 0x60 DUP3 ADD MLOAD AND PUSH1 0x60 DUP6 ADD MSTORE POP PUSH1 0x80 DUP4 ADD SWAP3 POP PUSH1 0x20 DUP5 ADD SWAP4 POP PUSH1 0x1 DUP2 ADD SWAP1 POP PUSH2 0x126D JUMP JUMPDEST POP SWAP1 SWAP6 SWAP5 POP POP POP POP POP JUMP JUMPDEST PUSH1 0x0 PUSH1 0x20 DUP3 DUP5 SUB SLT ISZERO PUSH2 0x1307 JUMPI PUSH1 0x0 DUP1 REVERT JUMPDEST POP CALLDATALOAD SWAP2 SWAP1 POP JUMP JUMPDEST PUSH32 0x4E487B7100000000000000000000000000000000000000000000000000000000 PUSH1 0x0 MSTORE PUSH1 0x41 PUSH1 0x4 MSTORE PUSH1 0x24 PUSH1 0x0 REVERT JUMPDEST PUSH32 0x4E487B7100000000000000000000000000000000000000000000000000000000 PUSH1 0x0 MSTORE PUSH1 0x32 PUSH1 0x4 MSTORE PUSH1 0x24 PUSH1 0x0 REVERT JUMPDEST PUSH1 0x40 DUP1 MLOAD SWAP1 DUP2 ADD PUSH8 0xFFFFFFFFFFFFFFFF DUP2 GT DUP3 DUP3 LT OR ISZERO PUSH2 0x138F JUMPI PUSH2 0x138F PUSH2 0x130E JUMP JUMPDEST PUSH1 0x40 MSTORE SWAP1 JUMP JUMPDEST PUSH1 0x40 MLOAD PUSH1 0x1F DUP3 ADD PUSH32 0xFFFFFFFFFFFFFFFFFFFFFFFFFFFFFFFFFFFFFFFFFFFFFFFFFFFFFFFFFFFFFFE0 AND DUP2 ADD PUSH8 0xFFFFFFFFFFFFFFFF DUP2 GT DUP3 DUP3 LT OR ISZERO PUSH2 0x13DC JUMPI PUSH2 0x13DC PUSH2 0x130E JUMP JUMPDEST PUSH1 0x40 MSTORE SWAP2 SWAP1 POP JUMP JUMPDEST DUP1 MLOAD PUSH16 0xFFFFFFFFFFFFFFFFFFFFFFFFFFFFFFFF DUP2 AND DUP2 EQ PUSH2 0x1404 JUMPI PUSH1 0x0 DUP1 REVERT JUMPDEST SWAP2 SWAP1 POP JUMP JUMPDEST PUSH1 0x0 PUSH1 0x20 DUP3 DUP5 SUB SLT ISZERO PUSH2 0x141B JUMPI PUSH1 0x0 DUP1 REVERT JUMPDEST DUP2 MLOAD PUSH8 0xFFFFFFFFFFFFFFFF DUP2 GT ISZERO PUSH2 0x1432 JUMPI PUSH1 0x0 DUP1 REVERT JUMPDEST DUP3 ADD PUSH1 0x1F DUP2 ADD DUP5 SGT PUSH2 0x1443 JUMPI PUSH1 0x0 DUP1 REVERT JUMPDEST DUP1 MLOAD PUSH8 0xFFFFFFFFFFFFFFFF DUP2 GT ISZERO PUSH2 0x145D JUMPI PUSH2 0x145D PUSH2 0x130E JUMP JUMPDEST PUSH2 0x146C PUSH1 0x20 DUP3 PUSH1 0x5 SHL ADD PUSH2 0x1395 JUMP JUMPDEST DUP1 DUP3 DUP3 MSTORE PUSH1 0x20 DUP3 ADD SWAP2 POP PUSH1 0x20 DUP4 PUSH1 0x6 SHL DUP6 ADD ADD SWAP3 POP DUP7 DUP4 GT ISZERO PUSH2 0x148E JUMPI PUSH1 0x0 DUP1 REVERT JUMPDEST PUSH1 0x20 DUP5 ADD SWAP4 POP JUMPDEST DUP3 DUP5 LT ISZERO PUSH2 0x14E6 JUMPI PUSH1 0x40 DUP5 DUP9 SUB SLT ISZERO PUSH2 0x14AD JUMPI PUSH1 0x0 DUP1 REVERT JUMPDEST PUSH2 0x14B5 PUSH2 0x136C JUMP JUMPDEST PUSH2 0x14BE DUP6 PUSH2 0x13E4 JUMP JUMPDEST DUP2 MSTORE PUSH2 0x14CC PUSH1 0x20 DUP7 ADD PUSH2 0x13E4 JUMP JUMPDEST PUSH1 0x20 DUP3 ADD MSTORE DUP1 DUP4 MSTORE POP PUSH1 0x20 DUP3 ADD SWAP2 POP PUSH1 0x40 DUP5 ADD SWAP4 POP PUSH2 0x1495 JUMP JUMPDEST SWAP7 SWAP6 POP POP POP POP POP POP JUMP JUMPDEST PUSH1 0x0 PUSH1 0x20 DUP3 DUP5 SUB SLT ISZERO PUSH2 0x1502 JUMPI PUSH1 0x0 DUP1 REVERT JUMPDEST POP MLOAD SWAP2 SWAP1 POP JUMP JUMPDEST PUSH32 0x4E487B7100000000000000000000000000000000000000000000000000000000 PUSH1 0x0 MSTORE PUSH1 0x11 PUSH1 0x4 MSTORE PUSH1 0x24 PUSH1 0x0 REVERT JUMPDEST DUP2 DUP2 SUB DUP2 DUP2 GT ISZERO PUSH2 0x418 JUMPI PUSH2 0x418 PUSH2 0x1509 JUMP JUMPDEST DUP1 DUP3 MUL DUP2 ISZERO DUP3 DUP3 DIV DUP5 EQ OR PUSH2 0x418 JUMPI PUSH2 0x418 PUSH2 0x1509 JUMP JUMPDEST PUSH1 0x0 DUP3 PUSH2 0x1598 JUMPI PUSH32 0x4E487B7100000000000000000000000000000000000000000000000000000000 PUSH1 0x0 MSTORE PUSH1 0x12 PUSH1 0x4 MSTORE PUSH1 0x24 PUSH1 0x0 REVERT JUMPDEST POP DIV SWAP1 JUMP JUMPDEST DUP1 DUP3 ADD DUP1 DUP3 GT ISZERO PUSH2 0x418 JUMPI PUSH2 0x418 PUSH2 0x1509 JUMP JUMPDEST PUSH1 0x0 PUSH1 0x20 DUP3 DUP5 SUB SLT ISZERO PUSH2 0x15C2 JUMPI PUSH1 0x0 DUP1 REVERT JUMPDEST DUP2 MLOAD DUP1 ISZERO ISZERO DUP2 EQ PUSH2 0x122A JUMPI PUSH1 0x0 DUP1 REVERT JUMPDEST PUSH1 0x0 DUP1 PUSH1 0x40 DUP4 DUP6 SUB SLT ISZERO PUSH2 0x15E5 JUMPI PUSH1 0x0 DUP1 REVERT JUMPDEST POP POP DUP1 MLOAD PUSH1 0x20 SWAP1 SWAP2 ADD MLOAD SWAP1 SWAP3 SWAP1 SWAP2 POP JUMP INVALID LOG2 PUSH5 0x6970667358 0x22 SLT KECCAK256 SWAP9 0xC 0xFB 0x4C 0xB8 0xDB MSTORE8 STOP SHL LOG1 0xB4 0xB9 0x1E 0xAC DUP11 PUSH30 0x5FECFCE53FDA8D3F1CC8EDEE47727F1964736F6C634300081C0033000000 "
        },
        "methodIdentifiers": {
          "BURN_ADDRESS()": "fccc2813",
          "bond()": "64c9ec6f",
          "burnHistory(uint256)": "b991118f",
          "disableRestorable()": "d282469a",
          "getHistories(uint256,uint256)": "587c0a30",
          "getHistoryCount()": "a18861a3",
          "getStats()": "c59d4847",
          "getTokensForReserve(uint256)": "65a948e7",
          "isRestorable()": "a0e98dff",
          "mfer()": "a15e0c61",
          "mferMoon()": "e485cfd0",
          "moon()": "b9094851",
          "restoreOwnership()": "8b90c31e",
          "totalMfermoonBurned()": "edcdb088"
        }
      }
    }
  }
}