{
  "contracts/Moon.sol": {
    "Moon": {
      "abi": [
        {
          "inputs": [],
          "stateMutability": "nonpayable",
          "type": "constructor"
        },
        {
          "anonymous": false,
          "inputs": [
            {
              "indexed": false,
              "internalType": "uint256",
              "name": "mferCollected",
              "type": "uint256"
            },
            {
              "indexed": false,
              "internalType": "uint256",
              "name": "moonferBurned",
              "type": "uint256"
            },
            {
              "indexed": false,
              "internalType": "address",
              "name": "caller",
              "type": "address"
            },
            {
              "indexed": false,
              "internalType": "uint40",
              "name": "timestamp",
              "type": "uint40"
            }
          ],
          "name": "Mooned",
          "type": "event"
        },
        {
          "inputs": [],
          "name": "BURN_ADDRESS",
          "outputs": [
            {
              "internalType": "address",
              "name": "",
              "type": "address"
            }
          ],
          "stateMutability": "view",
          "type": "function"
        },
        {
          "inputs": [],
          "name": "bond",
          "outputs": [
            {
              "internalType": "contract IMCV2_Bond",
              "name": "",
              "type": "address"
            }
          ],
          "stateMutability": "view",
          "type": "function"
        },
        {
          "inputs": [
            {
              "internalType": "uint256",
              "name": "",
              "type": "uint256"
            }
          ],
          "name": "burnHistory",
          "outputs": [
            {
              "internalType": "uint40",
              "name": "timestamp",
              "type": "uint40"
            },
            {
              "internalType": "uint96",
              "name": "mferCollected",
              "type": "uint96"
            },
            {
              "internalType": "uint96",
              "name": "moonferBurned",
              "type": "uint96"
            },
            {
              "internalType": "address",
              "name": "caller",
              "type": "address"
            }
          ],
          "stateMutability": "view",
          "type": "function"
        },
        {
          "inputs": [],
          "name": "getStats",
          "outputs": [
            {
              "internalType": "uint256",
              "name": "pending",
              "type": "uint256"
            },
            {
              "internalType": "uint256",
              "name": "burned",
              "type": "uint256"
            }
          ],
          "stateMutability": "view",
          "type": "function"
        },
        {
          "inputs": [
            {
              "internalType": "uint256",
              "name": "mferAmount",
              "type": "uint256"
            }
          ],
          "name": "getTokensForReserve",
          "outputs": [
            {
              "internalType": "uint256",
              "name": "",
              "type": "uint256"
            }
          ],
          "stateMutability": "view",
          "type": "function"
        },
        {
          "inputs": [],
          "name": "mfer",
          "outputs": [
            {
              "internalType": "contract IERC20",
              "name": "",
              "type": "address"
            }
          ],
          "stateMutability": "view",
          "type": "function"
        },
        {
          "inputs": [],
          "name": "moon",
          "outputs": [],
          "stateMutability": "nonpayable",
          "type": "function"
        },
        {
          "inputs": [],
          "name": "moonfer",
          "outputs": [
            {
              "internalType": "contract IERC20",
              "name": "",
              "type": "address"
            }
          ],
          "stateMutability": "view",
          "type": "function"
        },
        {
          "inputs": [],
          "name": "totalMferCollected",
          "outputs": [
            {
              "internalType": "uint256",
              "name": "",
              "type": "uint256"
            }
          ],
          "stateMutability": "view",
          "type": "function"
        },
        {
          "inputs": [],
          "name": "totalMoonferBurned",
          "outputs": [
            {
              "internalType": "uint256",
              "name": "",
              "type": "uint256"
            }
          ],
          "stateMutability": "view",
          "type": "function"
        }
      ],
      "evm": {
        "bytecode": {
          "linkReferences": {},
          "object": "60e060405234801561001057600080fd5b5073c5a076cad94176c2996b32d8466be1ce757faa27608081905273e3086852a4b125803c815a158249ae468a3254ca60a08190527365ff2ce3a4bd0e3b13b35d511c5561addac0992e60c05260405163095ea7b360e01b8152600481019290925260001960248301529063095ea7b3906044016020604051808303816000875af11580156100a3573d6000803e3d6000fd5b505050506040513d601f19601f820116820180604052508101906100c791906100cd565b506100f6565b6000602082840312156100df57600080fd5b815180151581146100ef57600080fd5b9392505050565b60805160a05160c0516111126101716000396000818160c8015281816102fb015281816103bb01526109e1015260008181610161015281816106ce0152818161078201528181610ac40152610ce101526000818161011901528181610326015281816106f601528181610a1f0152610d0e01526111126000f3fe608060405234801561001057600080fd5b50600436106100be5760003560e01c8063aa4d088711610076578063b991118f1161005b578063b991118f1461019f578063c59d484714610202578063fccc28131461021f57600080fd5b8063aa4d08871461018c578063b90948511461019557600080fd5b806365a948e7116100a757806365a948e71461013b578063a15e0c611461015c578063a56cc4331461018357600080fd5b806304a40d59146100c357806364c9ec6f14610114575b600080fd5b6100ea7f000000000000000000000000000000000000000000000000000000000000000081565b60405173ffffffffffffffffffffffffffffffffffffffff90911681526020015b60405180910390f35b6100ea7f000000000000000000000000000000000000000000000000000000000000000081565b61014e610149366004610dd4565b610228565b60405190815260200161010b565b6100ea7f000000000000000000000000000000000000000000000000000000000000000081565b61014e60015481565b61014e60025481565b61019d610691565b005b6101b26101ad366004610dd4565b610c23565b6040805164ffffffffff9590951685526bffffffffffffffffffffffff9384166020860152919092169083015273ffffffffffffffffffffffffffffffffffffffff16606082015260800161010b565b61020a610c9e565b6040805192835260208301919091520161010b565b6100ea61dead81565b60008082116102be576040517f08c379a000000000000000000000000000000000000000000000000000000000815260206004820152602160248201527f6d666572416d6f756e74206d7573742062652067726561746572207468616e2060448201527f300000000000000000000000000000000000000000000000000000000000000060648201526084015b60405180910390fd5b6040517f995e5f9200000000000000000000000000000000000000000000000000000000815273ffffffffffffffffffffffffffffffffffffffff7f0000000000000000000000000000000000000000000000000000000000000000811660048301526000917f00000000000000000000000000000000000000000000000000000000000000009091169063995e5f9290602401600060405180830381865afa15801561036f573d6000803e3d6000fd5b505050506040513d6000823e601f3d9081017fffffffffffffffffffffffffffffffffffffffffffffffffffffffffffffffe01682016040526103b59190810190610eb9565b905060007f000000000000000000000000000000000000000000000000000000000000000073ffffffffffffffffffffffffffffffffffffffff166318160ddd6040518163ffffffff1660e01b8152600401602060405180830381865afa158015610424573d6000803e3d6000fd5b505050506040513d601f19601f820116820180604052508101906104489190610fa0565b9050836000670de0b6b3a7640000815b855181101561058e5785818151811061047357610473610fb9565b6020026020010151600001516fffffffffffffffffffffffffffffffff1685101561058657831561058e576000858783815181106104b3576104b3610fb9565b6020026020010151600001516fffffffffffffffffffffffffffffffff166104db9190611017565b9050806000036104eb5750610586565b60008783815181106104ff576104ff610fb9565b6020026020010151602001516fffffffffffffffffffffffffffffffff16905060006105368588610530919061102a565b83610d81565b9050828111610557576105498187611041565b95506000965050505061058e565b6105618387611041565b9550610576610570838561102a565b86610d81565b6105809088611017565b96505050505b600101610458565b506000821161061f576040517f08c379a000000000000000000000000000000000000000000000000000000000815260206004820152602760248201527f43616e6e6f74206d696e7420616e7920746f6b656e732077697468207468697360448201527f20616d6f756e740000000000000000000000000000000000000000000000000060648201526084016102b5565b8215610687576040517f08c379a000000000000000000000000000000000000000000000000000000000815260206004820152601260248201527f77726f6e672063616c63756c6174696f6e21000000000000000000000000000060448201526064016102b5565b5095945050505050565b6040517fc162c91600000000000000000000000000000000000000000000000000000000815273ffffffffffffffffffffffffffffffffffffffff7f0000000000000000000000000000000000000000000000000000000000000000811660048301527f0000000000000000000000000000000000000000000000000000000000000000169063c162c91690602401600060405180830381600087803b15801561073a57600080fd5b505af115801561074e573d6000803e3d6000fd5b50506040517f70a08231000000000000000000000000000000000000000000000000000000008152306004820152600092507f000000000000000000000000000000000000000000000000000000000000000073ffffffffffffffffffffffffffffffffffffffff1691506370a0823190602401602060405180830381865afa1580156107df573d6000803e3d6000fd5b505050506040513d601f19601f820116820180604052508101906108039190610fa0565b90506000610812606483611054565b905060006108208284611017565b9050600061082d82610228565b905083600160008282546108419190611041565b92505081905550806002600082825461085a9190611041565b90915550506040805160808101825264ffffffffff42811682526bffffffffffffffffffffffff87811660208401908152858216848601908152336060860190815260008054600181018255908052955160029096027f290decd9548b62a8d60345a988386fc84ba6bc95484008f6362f93160ef3e5638101805494519351861671010000000000000000000000000000000000027fffffff000000000000000000000000ffffffffffffffffffffffffffffffffff9490961665010000000000027fffffffffffffffffffffffffffffff00000000000000000000000000000000009095169790961696909617929092171691909117909155517f290decd9548b62a8d60345a988386fc84ba6bc95484008f6362f93160ef3e564909101805473ffffffffffffffffffffffffffffffffffffffff9283167fffffffffffffffffffffffff000000000000000000000000000000000000000090911617905590517ff74bfe8e0000000000000000000000000000000000000000000000000000000081527f000000000000000000000000000000000000000000000000000000000000000082166004820152602481018390526044810184905261dead60648201527f00000000000000000000000000000000000000000000000000000000000000009091169063f74bfe8e906084016020604051808303816000875af1158015610a6a573d6000803e3d6000fd5b505050506040513d601f19601f82011682018060405250810190610a8e9190610fa0565b506040517fa9059cbb000000000000000000000000000000000000000000000000000000008152336004820152602481018490527f000000000000000000000000000000000000000000000000000000000000000073ffffffffffffffffffffffffffffffffffffffff169063a9059cbb906044016020604051808303816000875af1158015610b22573d6000803e3d6000fd5b505050506040513d601f19601f82011682018060405250810190610b46919061108f565b610bd1576040517f08c379a0000000000000000000000000000000000000000000000000000000008152602060048201526024808201527f4661696c656420746f207472616e73666572206d66657220636f6d70656e736160448201527f74696f6e0000000000000000000000000000000000000000000000000000000060648201526084016102b5565b604080518581526020810183905233818301524264ffffffffff16606082015290517fb93098931bb66f1dabc74eb4868ea23d49364c144aa18371a22ec8a69ef56f389181900360800190a150505050565b60008181548110610c3357600080fd5b60009182526020909120600290910201805460019091015464ffffffffff821692506bffffffffffffffffffffffff650100000000008304811692710100000000000000000000000000000000009004169073ffffffffffffffffffffffffffffffffffffffff1684565b6040517fac4e967500000000000000000000000000000000000000000000000000000000815230600482015273ffffffffffffffffffffffffffffffffffffffff7f00000000000000000000000000000000000000000000000000000000000000008116602483015260009182917f0000000000000000000000000000000000000000000000000000000000000000169063ac4e9675906044016040805180830381865afa158015610d54573d6000803e3d6000fd5b505050506040513d601f19601f82011682018060405250810190610d7891906110b8565b90939092509050565b600081600003610d9c57610d958284611054565b9050610dce565b8215610dc85781610dae600185611017565b610db89190611054565b610dc3906001611041565b610dcb565b60005b90505b92915050565b600060208284031215610de657600080fd5b5035919050565b7f4e487b7100000000000000000000000000000000000000000000000000000000600052604160045260246000fd5b6040805190810167ffffffffffffffff81118282101715610e3f57610e3f610ded565b60405290565b604051601f82017fffffffffffffffffffffffffffffffffffffffffffffffffffffffffffffffe016810167ffffffffffffffff81118282101715610e8c57610e8c610ded565b604052919050565b80516fffffffffffffffffffffffffffffffff81168114610eb457600080fd5b919050565b600060208284031215610ecb57600080fd5b815167ffffffffffffffff811115610ee257600080fd5b8201601f81018413610ef357600080fd5b805167ffffffffffffffff811115610f0d57610f0d610ded565b610f1c60208260051b01610e45565b8082825260208201915060208360061b850101925086831115610f3e57600080fd5b6020840193505b82841015610f965760408488031215610f5d57600080fd5b610f65610e1c565b610f6e85610e94565b8152610f7c60208601610e94565b602082015280835250602082019150604084019350610f45565b9695505050505050565b600060208284031215610fb257600080fd5b5051919050565b7f4e487b7100000000000000000000000000000000000000000000000000000000600052603260045260246000fd5b7f4e487b7100000000000000000000000000000000000000000000000000000000600052601160045260246000fd5b81810381811115610dce57610dce610fe8565b8082028115828204841417610dce57610dce610fe8565b80820180821115610dce57610dce610fe8565b60008261108a577f4e487b7100000000000000000000000000000000000000000000000000000000600052601260045260246000fd5b500490565b6000602082840312156110a157600080fd5b815180151581146110b157600080fd5b9392505050565b600080604083850312156110cb57600080fd5b50508051602090910151909290915056fea26469706673582212202464d12d97f66a4f26553dca96c62fb29e99ba2a3df8f0a3a7e3a67b4786a18464736f6c634300081c0033",
          "opcodes": "PUSH1 0xE0 PUSH1 0x40 MSTORE CALLVALUE DUP1 ISZERO PUSH2 0x10 JUMPI PUSH1 0x0 DUP1 REVERT JUMPDEST POP PUSH20 0xC5A076CAD94176C2996B32D8466BE1CE757FAA27 PUSH1 0x80 DUP2 SWAP1 MSTORE PUSH20 0xE3086852A4B125803C815A158249AE468A3254CA PUSH1 0xA0 DUP2 SWAP1 MSTORE PUSH20 0x65FF2CE3A4BD0E3B13B35D511C5561ADDAC0992E PUSH1 0xC0 MSTORE PUSH1 0x40 MLOAD PUSH4 0x95EA7B3 PUSH1 0xE0 SHL DUP2 MSTORE PUSH1 0x4 DUP2 ADD SWAP3 SWAP1 SWAP3 MSTORE PUSH1 0x0 NOT PUSH1 0x24 DUP4 ADD MSTORE SWAP1 PUSH4 0x95EA7B3 SWAP1 PUSH1 0x44 ADD PUSH1 0x20 PUSH1 0x40 MLOAD DUP1 DUP4 SUB DUP2 PUSH1 0x0 DUP8 GAS CALL ISZERO DUP1 ISZERO PUSH2 0xA3 JUMPI RETURNDATASIZE PUSH1 0x0 DUP1 RETURNDATACOPY RETURNDATASIZE PUSH1 0x0 REVERT JUMPDEST POP POP POP POP PUSH1 0x40 MLOAD RETURNDATASIZE PUSH1 0x1F NOT PUSH1 0x1F DUP3 ADD AND DUP3 ADD DUP1 PUSH1 0x40 MSTORE POP DUP2 ADD SWAP1 PUSH2 0xC7 SWAP2 SWAP1 PUSH2 0xCD JUMP JUMPDEST POP PUSH2 0xF6 JUMP JUMPDEST PUSH1 0x0 PUSH1 0x20 DUP3 DUP5 SUB SLT ISZERO PUSH2 0xDF JUMPI PUSH1 0x0 DUP1 REVERT JUMPDEST DUP2 MLOAD DUP1 ISZERO ISZERO DUP2 EQ PUSH2 0xEF JUMPI PUSH1 0x0 DUP1 REVERT JUMPDEST SWAP4 SWAP3 POP POP POP JUMP JUMPDEST PUSH1 0x80 MLOAD PUSH1 0xA0 MLOAD PUSH1 0xC0 MLOAD PUSH2 0x1112 PUSH2 0x171 PUSH1 0x0 CODECOPY PUSH1 0x0 DUP2 DUP2 PUSH1 0xC8 ADD MSTORE DUP2 DUP2 PUSH2 0x2FB ADD MSTORE DUP2 DUP2 PUSH2 0x3BB ADD MSTORE PUSH2 0x9E1 ADD MSTORE PUSH1 0x0 DUP2 DUP2 PUSH2 0x161 ADD MSTORE DUP2 DUP2 PUSH2 0x6CE ADD MSTORE DUP2 DUP2 PUSH2 0x782 ADD MSTORE DUP2 DUP2 PUSH2 0xAC4 ADD MSTORE PUSH2 0xCE1 ADD MSTORE PUSH1 0x0 DUP2 DUP2 PUSH2 0x119 ADD MSTORE DUP2 DUP2 PUSH2 0x326 ADD MSTORE DUP2 DUP2 PUSH2 0x6F6 ADD MSTORE DUP2 DUP2 PUSH2 0xA1F ADD MSTORE PUSH2 0xD0E ADD MSTORE PUSH2 0x1112 PUSH1 0x0 RETURN INVALID PUSH1 0x80 PUSH1 0x40 MSTORE CALLVALUE DUP1 ISZERO PUSH2 0x10 JUMPI PUSH1 0x0 DUP1 REVERT JUMPDEST POP PUSH1 0x4 CALLDATASIZE LT PUSH2 0xBE JUMPI PUSH1 0x0 CALLDATALOAD PUSH1 0xE0 SHR DUP1 PUSH4 0xAA4D0887 GT PUSH2 0x76 JUMPI DUP1 PUSH4 0xB991118F GT PUSH2 0x5B JUMPI DUP1 PUSH4 0xB991118F EQ PUSH2 0x19F JUMPI DUP1 PUSH4 0xC59D4847 EQ PUSH2 0x202 JUMPI DUP1 PUSH4 0xFCCC2813 EQ PUSH2 0x21F JUMPI PUSH1 0x0 DUP1 REVERT JUMPDEST DUP1 PUSH4 0xAA4D0887 EQ PUSH2 0x18C JUMPI DUP1 PUSH4 0xB9094851 EQ PUSH2 0x195 JUMPI PUSH1 0x0 DUP1 REVERT JUMPDEST DUP1 PUSH4 0x65A948E7 GT PUSH2 0xA7 JUMPI DUP1 PUSH4 0x65A948E7 EQ PUSH2 0x13B JUMPI DUP1 PUSH4 0xA15E0C61 EQ PUSH2 0x15C JUMPI DUP1 PUSH4 0xA56CC433 EQ PUSH2 0x183 JUMPI PUSH1 0x0 DUP1 REVERT JUMPDEST DUP1 PUSH4 0x4A40D59 EQ PUSH2 0xC3 JUMPI DUP1 PUSH4 0x64C9EC6F EQ PUSH2 0x114 JUMPI JUMPDEST PUSH1 0x0 DUP1 REVERT JUMPDEST PUSH2 0xEA PUSH32 0x0 DUP2 JUMP JUMPDEST PUSH1 0x40 MLOAD PUSH20 0xFFFFFFFFFFFFFFFFFFFFFFFFFFFFFFFFFFFFFFFF SWAP1 SWAP2 AND DUP2 MSTORE PUSH1 0x20 ADD JUMPDEST PUSH1 0x40 MLOAD DUP1 SWAP2 SUB SWAP1 RETURN JUMPDEST PUSH2 0xEA PUSH32 0x0 DUP2 JUMP JUMPDEST PUSH2 0x14E PUSH2 0x149 CALLDATASIZE PUSH1 0x4 PUSH2 0xDD4 JUMP JUMPDEST PUSH2 0x228 JUMP JUMPDEST PUSH1 0x40 MLOAD SWAP1 DUP2 MSTORE PUSH1 0x20 ADD PUSH2 0x10B JUMP JUMPDEST PUSH2 0xEA PUSH32 0x0 DUP2 JUMP JUMPDEST PUSH2 0x14E PUSH1 0x1 SLOAD DUP2 JUMP JUMPDEST PUSH2 0x14E PUSH1 0x2 SLOAD DUP2 JUMP JUMPDEST PUSH2 0x19D PUSH2 0x691 JUMP JUMPDEST STOP JUMPDEST PUSH2 0x1B2 PUSH2 0x1AD CALLDATASIZE PUSH1 0x4 PUSH2 0xDD4 JUMP JUMPDEST PUSH2 0xC23 JUMP JUMPDEST PUSH1 0x40 DUP1 MLOAD PUSH5 0xFFFFFFFFFF SWAP6 SWAP1 SWAP6 AND DUP6 MSTORE PUSH12 0xFFFFFFFFFFFFFFFFFFFFFFFF SWAP4 DUP5 AND PUSH1 0x20 DUP7 ADD MSTORE SWAP2 SWAP1 SWAP3 AND SWAP1 DUP4 ADD MSTORE PUSH20 0xFFFFFFFFFFFFFFFFFFFFFFFFFFFFFFFFFFFFFFFF AND PUSH1 0x60 DUP3 ADD MSTORE PUSH1 0x80 ADD PUSH2 0x10B JUMP JUMPDEST PUSH2 0x20A PUSH2 0xC9E JUMP JUMPDEST PUSH1 0x40 DUP1 MLOAD SWAP3 DUP4 MSTORE PUSH1 0x20 DUP4 ADD SWAP2 SWAP1 SWAP2 MSTORE ADD PUSH2 0x10B JUMP JUMPDEST PUSH2 0xEA PUSH2 0xDEAD DUP2 JUMP JUMPDEST PUSH1 0x0 DUP1 DUP3 GT PUSH2 0x2BE JUMPI PUSH1 0x40 MLOAD PUSH32 0x8C379A000000000000000000000000000000000000000000000000000000000 DUP2 MSTORE PUSH1 0x20 PUSH1 0x4 DUP3 ADD MSTORE PUSH1 0x21 PUSH1 0x24 DUP3 ADD MSTORE PUSH32 0x6D666572416D6F756E74206D7573742062652067726561746572207468616E20 PUSH1 0x44 DUP3 ADD MSTORE PUSH32 0x3000000000000000000000000000000000000000000000000000000000000000 PUSH1 0x64 DUP3 ADD MSTORE PUSH1 0x84 ADD JUMPDEST PUSH1 0x40 MLOAD DUP1 SWAP2 SUB SWAP1 REVERT JUMPDEST PUSH1 0x40 MLOAD PUSH32 0x995E5F9200000000000000000000000000000000000000000000000000000000 DUP2 MSTORE PUSH20 0xFFFFFFFFFFFFFFFFFFFFFFFFFFFFFFFFFFFFFFFF PUSH32 0x0 DUP2 AND PUSH1 0x4 DUP4 ADD MSTORE PUSH1 0x0 SWAP2 PUSH32 0x0 SWAP1 SWAP2 AND SWAP1 PUSH4 0x995E5F92 SWAP1 PUSH1 0x24 ADD PUSH1 0x0 PUSH1 0x40 MLOAD DUP1 DUP4 SUB DUP2 DUP7 GAS STATICCALL ISZERO DUP1 ISZERO PUSH2 0x36F JUMPI RETURNDATASIZE PUSH1 0x0 DUP1 RETURNDATACOPY RETURNDATASIZE PUSH1 0x0 REVERT JUMPDEST POP POP POP POP PUSH1 0x40 MLOAD RETURNDATASIZE PUSH1 0x0 DUP3 RETURNDATACOPY PUSH1 0x1F RETURNDATASIZE SWAP1 DUP2 ADD PUSH32 0xFFFFFFFFFFFFFFFFFFFFFFFFFFFFFFFFFFFFFFFFFFFFFFFFFFFFFFFFFFFFFFE0 AND DUP3 ADD PUSH1 0x40 MSTORE PUSH2 0x3B5 SWAP2 SWAP1 DUP2 ADD SWAP1 PUSH2 0xEB9 JUMP JUMPDEST SWAP1 POP PUSH1 0x0 PUSH32 0x0 PUSH20 0xFFFFFFFFFFFFFFFFFFFFFFFFFFFFFFFFFFFFFFFF AND PUSH4 0x18160DDD PUSH1 0x40 MLOAD DUP2 PUSH4 0xFFFFFFFF AND PUSH1 0xE0 SHL DUP2 MSTORE PUSH1 0x4 ADD PUSH1 0x20 PUSH1 0x40 MLOAD DUP1 DUP4 SUB DUP2 DUP7 GAS STATICCALL ISZERO DUP1 ISZERO PUSH2 0x424 JUMPI RETURNDATASIZE PUSH1 0x0 DUP1 RETURNDATACOPY RETURNDATASIZE PUSH1 0x0 REVERT JUMPDEST POP POP POP POP PUSH1 0x40 MLOAD RETURNDATASIZE PUSH1 0x1F NOT PUSH1 0x1F DUP3 ADD AND DUP3 ADD DUP1 PUSH1 0x40 MSTORE POP DUP2 ADD SWAP1 PUSH2 0x448 SWAP2 SWAP1 PUSH2 0xFA0 JUMP JUMPDEST SWAP1 POP DUP4 PUSH1 0x0 PUSH8 0xDE0B6B3A7640000 DUP2 JUMPDEST DUP6 MLOAD DUP2 LT ISZERO PUSH2 0x58E JUMPI DUP6 DUP2 DUP2 MLOAD DUP2 LT PUSH2 0x473 JUMPI PUSH2 0x473 PUSH2 0xFB9 JUMP JUMPDEST PUSH1 0x20 MUL PUSH1 0x20 ADD ADD MLOAD PUSH1 0x0 ADD MLOAD PUSH16 0xFFFFFFFFFFFFFFFFFFFFFFFFFFFFFFFF AND DUP6 LT ISZERO PUSH2 0x586 JUMPI DUP4 ISZERO PUSH2 0x58E JUMPI PUSH1 0x0 DUP6 DUP8 DUP4 DUP2 MLOAD DUP2 LT PUSH2 0x4B3 JUMPI PUSH2 0x4B3 PUSH2 0xFB9 JUMP JUMPDEST PUSH1 0x20 MUL PUSH1 0x20 ADD ADD MLOAD PUSH1 0x0 ADD MLOAD PUSH16 0xFFFFFFFFFFFFFFFFFFFFFFFFFFFFFFFF AND PUSH2 0x4DB SWAP2 SWAP1 PUSH2 0x1017 JUMP JUMPDEST SWAP1 POP DUP1 PUSH1 0x0 SUB PUSH2 0x4EB JUMPI POP PUSH2 0x586 JUMP JUMPDEST PUSH1 0x0 DUP8 DUP4 DUP2 MLOAD DUP2 LT PUSH2 0x4FF JUMPI PUSH2 0x4FF PUSH2 0xFB9 JUMP JUMPDEST PUSH1 0x20 MUL PUSH1 0x20 ADD ADD MLOAD PUSH1 0x20 ADD MLOAD PUSH16 0xFFFFFFFFFFFFFFFFFFFFFFFFFFFFFFFF AND SWAP1 POP PUSH1 0x0 PUSH2 0x536 DUP6 DUP9 PUSH2 0x530 SWAP2 SWAP1 PUSH2 0x102A JUMP JUMPDEST DUP4 PUSH2 0xD81 JUMP JUMPDEST SWAP1 POP DUP3 DUP2 GT PUSH2 0x557 JUMPI PUSH2 0x549 DUP2 DUP8 PUSH2 0x1041 JUMP JUMPDEST SWAP6 POP PUSH1 0x0 SWAP7 POP POP POP POP PUSH2 0x58E JUMP JUMPDEST PUSH2 0x561 DUP4 DUP8 PUSH2 0x1041 JUMP JUMPDEST SWAP6 POP PUSH2 0x576 PUSH2 0x570 DUP4 DUP6 PUSH2 0x102A JUMP JUMPDEST DUP7 PUSH2 0xD81 JUMP JUMPDEST PUSH2 0x580 SWAP1 DUP9 PUSH2 0x1017 JUMP JUMPDEST SWAP7 POP POP POP POP JUMPDEST PUSH1 0x1 ADD PUSH2 0x458 JUMP JUMPDEST POP PUSH1 0x0 DUP3 GT PUSH2 0x61F JUMPI PUSH1 0x40 MLOAD PUSH32 0x8C379A000000000000000000000000000000000000000000000000000000000 DUP2 MSTORE PUSH1 0x20 PUSH1 0x4 DUP3 ADD MSTORE PUSH1 0x27 PUSH1 0x24 DUP3 ADD MSTORE PUSH32 0x43616E6E6F74206D696E7420616E7920746F6B656E7320776974682074686973 PUSH1 0x44 DUP3 ADD MSTORE PUSH32 0x20616D6F756E7400000000000000000000000000000000000000000000000000 PUSH1 0x64 DUP3 ADD MSTORE PUSH1 0x84 ADD PUSH2 0x2B5 JUMP JUMPDEST DUP3 ISZERO PUSH2 0x687 JUMPI PUSH1 0x40 MLOAD PUSH32 0x8C379A000000000000000000000000000000000000000000000000000000000 DUP2 MSTORE PUSH1 0x20 PUSH1 0x4 DUP3 ADD MSTORE PUSH1 0x12 PUSH1 0x24 DUP3 ADD MSTORE PUSH32 0x77726F6E672063616C63756C6174696F6E210000000000000000000000000000 PUSH1 0x44 DUP3 ADD MSTORE PUSH1 0x64 ADD PUSH2 0x2B5 JUMP JUMPDEST POP SWAP6 SWAP5 POP POP POP POP POP JUMP JUMPDEST PUSH1 0x40 MLOAD PUSH32 0xC162C91600000000000000000000000000000000000000000000000000000000 DUP2 MSTORE PUSH20 0xFFFFFFFFFFFFFFFFFFFFFFFFFFFFFFFFFFFFFFFF PUSH32 0x0 DUP2 AND PUSH1 0x4 DUP4 ADD MSTORE PUSH32 0x0 AND SWAP1 PUSH4 0xC162C916 SWAP1 PUSH1 0x24 ADD PUSH1 0x0 PUSH1 0x40 MLOAD DUP1 DUP4 SUB DUP2 PUSH1 0x0 DUP8 DUP1 EXTCODESIZE ISZERO DUP1 ISZERO PUSH2 0x73A JUMPI PUSH1 0x0 DUP1 REVERT JUMPDEST POP GAS CALL ISZERO DUP1 ISZERO PUSH2 0x74E JUMPI RETURNDATASIZE PUSH1 0x0 DUP1 RETURNDATACOPY RETURNDATASIZE PUSH1 0x0 REVERT JUMPDEST POP POP PUSH1 0x40 MLOAD PUSH32 0x70A0823100000000000000000000000000000000000000000000000000000000 DUP2 MSTORE ADDRESS PUSH1 0x4 DUP3 ADD MSTORE PUSH1 0x0 SWAP3 POP PUSH32 0x0 PUSH20 0xFFFFFFFFFFFFFFFFFFFFFFFFFFFFFFFFFFFFFFFF AND SWAP2 POP PUSH4 0x70A08231 SWAP1 PUSH1 0x24 ADD PUSH1 0x20 PUSH1 0x40 MLOAD DUP1 DUP4 SUB DUP2 DUP7 GAS STATICCALL ISZERO DUP1 ISZERO PUSH2 0x7DF JUMPI RETURNDATASIZE PUSH1 0x0 DUP1 RETURNDATACOPY RETURNDATASIZE PUSH1 0x0 REVERT JUMPDEST POP POP POP POP PUSH1 0x40 MLOAD RETURNDATASIZE PUSH1 0x1F NOT PUSH1 0x1F DUP3 ADD AND DUP3 ADD DUP1 PUSH1 0x40 MSTORE POP DUP2 ADD SWAP1 PUSH2 0x803 SWAP2 SWAP1 PUSH2 0xFA0 JUMP JUMPDEST SWAP1 POP PUSH1 0x0 PUSH2 0x812 PUSH1 0x64 DUP4 PUSH2 0x1054 JUMP JUMPDEST SWAP1 POP PUSH1 0x0 PUSH2 0x820 DUP3 DUP5 PUSH2 0x1017 JUMP JUMPDEST SWAP1 POP PUSH1 0x0 PUSH2 0x82D DUP3 PUSH2 0x228 JUMP JUMPDEST SWAP1 POP DUP4 PUSH1 0x1 PUSH1 0x0 DUP3 DUP3 SLOAD PUSH2 0x841 SWAP2 SWAP1 PUSH2 0x1041 JUMP JUMPDEST SWAP3 POP POP DUP2 SWAP1 SSTORE POP DUP1 PUSH1 0x2 PUSH1 0x0 DUP3 DUP3 SLOAD PUSH2 0x85A SWAP2 SWAP1 PUSH2 0x1041 JUMP JUMPDEST SWAP1 SWAP2 SSTORE POP POP PUSH1 0x40 DUP1 MLOAD PUSH1 0x80 DUP2 ADD DUP3 MSTORE PUSH5 0xFFFFFFFFFF TIMESTAMP DUP2 AND DUP3 MSTORE PUSH12 0xFFFFFFFFFFFFFFFFFFFFFFFF DUP8 DUP2 AND PUSH1 0x20 DUP5 ADD SWAP1 DUP2 MSTORE DUP6 DUP3 AND DUP5 DUP7 ADD SWAP1 DUP2 MSTORE CALLER PUSH1 0x60 DUP7 ADD SWAP1 DUP2 MSTORE PUSH1 0x0 DUP1 SLOAD PUSH1 0x1 DUP2 ADD DUP3 SSTORE SWAP1 DUP1 MSTORE SWAP6 MLOAD PUSH1 0x2 SWAP1 SWAP7 MUL PUSH32 0x290DECD9548B62A8D60345A988386FC84BA6BC95484008F6362F93160EF3E563 DUP2 ADD DUP1 SLOAD SWAP5 MLOAD SWAP4 MLOAD DUP7 AND PUSH18 0x10000000000000000000000000000000000 MUL PUSH32 0xFFFFFF000000000000000000000000FFFFFFFFFFFFFFFFFFFFFFFFFFFFFFFFFF SWAP5 SWAP1 SWAP7 AND PUSH6 0x10000000000 MUL PUSH32 0xFFFFFFFFFFFFFFFFFFFFFFFFFFFFFF0000000000000000000000000000000000 SWAP1 SWAP6 AND SWAP8 SWAP1 SWAP7 AND SWAP7 SWAP1 SWAP7 OR SWAP3 SWAP1 SWAP3 OR AND SWAP2 SWAP1 SWAP2 OR SWAP1 SWAP2 SSTORE MLOAD PUSH32 0x290DECD9548B62A8D60345A988386FC84BA6BC95484008F6362F93160EF3E564 SWAP1 SWAP2 ADD DUP1 SLOAD PUSH20 0xFFFFFFFFFFFFFFFFFFFFFFFFFFFFFFFFFFFFFFFF SWAP3 DUP4 AND PUSH32 0xFFFFFFFFFFFFFFFFFFFFFFFF0000000000000000000000000000000000000000 SWAP1 SWAP2 AND OR SWAP1 SSTORE SWAP1 MLOAD PUSH32 0xF74BFE8E00000000000000000000000000000000000000000000000000000000 DUP2 MSTORE PUSH32 0x0 DUP3 AND PUSH1 0x4 DUP3 ADD MSTORE PUSH1 0x24 DUP2 ADD DUP4 SWAP1 MSTORE PUSH1 0x44 DUP2 ADD DUP5 SWAP1 MSTORE PUSH2 0xDEAD PUSH1 0x64 DUP3 ADD MSTORE PUSH32 0x0 SWAP1 SWAP2 AND SWAP1 PUSH4 0xF74BFE8E SWAP1 PUSH1 0x84 ADD PUSH1 0x20 PUSH1 0x40 MLOAD DUP1 DUP4 SUB DUP2 PUSH1 0x0 DUP8 GAS CALL ISZERO DUP1 ISZERO PUSH2 0xA6A JUMPI RETURNDATASIZE PUSH1 0x0 DUP1 RETURNDATACOPY RETURNDATASIZE PUSH1 0x0 REVERT JUMPDEST POP POP POP POP PUSH1 0x40 MLOAD RETURNDATASIZE PUSH1 0x1F NOT PUSH1 0x1F DUP3 ADD AND DUP3 ADD DUP1 PUSH1 0x40 MSTORE POP DUP2 ADD SWAP1 PUSH2 0xA8E SWAP2 SWAP1 PUSH2 0xFA0 JUMP JUMPDEST POP PUSH1 0x40 MLOAD PUSH32 0xA9059CBB00000000000000000000000000000000000000000000000000000000 DUP2 MSTORE CALLER PUSH1 0x4 DUP3 ADD MSTORE PUSH1 0x24 DUP2 ADD DUP5 SWAP1 MSTORE PUSH32 0x0 PUSH20 0xFFFFFFFFFFFFFFFFFFFFFFFFFFFFFFFFFFFFFFFF AND SWAP1 PUSH4 0xA9059CBB SWAP1 PUSH1 0x44 ADD PUSH1 0x20 PUSH1 0x40 MLOAD DUP1 DUP4 SUB DUP2 PUSH1 0x0 DUP8 GAS CALL ISZERO DUP1 ISZERO PUSH2 0xB22 JUMPI RETURNDATASIZE PUSH1 0x0 DUP1 RETURNDATACOPY RETURNDATASIZE PUSH1 0x0 REVERT JUMPDEST POP POP POP POP PUSH1 0x40 MLOAD RETURNDATASIZE PUSH1 0x1F NOT PUSH1 0x1F DUP3 ADD AND DUP3 ADD DUP1 PUSH1 0x40 MSTORE POP DUP2 ADD SWAP1 PUSH2 0xB46 SWAP2 SWAP1 PUSH2 0x108F JUMP JUMPDEST PUSH2 0xBD1 JUMPI PUSH1 0x40 MLOAD PUSH32 0x8C379A000000000000000000000000000000000000000000000000000000000 DUP2 MSTORE PUSH1 0x20 PUSH1 0x4 DUP3 ADD MSTORE PUSH1 0x24 DUP1 DUP3 ADD MSTORE PUSH32 0x4661696C656420746F207472616E73666572206D66657220636F6D70656E7361 PUSH1 0x44 DUP3 ADD MSTORE PUSH32 0x74696F6E00000000000000000000000000000000000000000000000000000000 PUSH1 0x64 DUP3 ADD MSTORE PUSH1 0x84 ADD PUSH2 0x2B5 JUMP JUMPDEST PUSH1 0x40 DUP1 MLOAD DUP6 DUP2 MSTORE PUSH1 0x20 DUP2 ADD DUP4 SWAP1 MSTORE CALLER DUP2 DUP4 ADD MSTORE TIMESTAMP PUSH5 0xFFFFFFFFFF AND PUSH1 0x60 DUP3 ADD MSTORE SWAP1 MLOAD PUSH32 0xB93098931BB66F1DABC74EB4868EA23D49364C144AA18371A22EC8A69EF56F38 SWAP2 DUP2 SWAP1 SUB PUSH1 0x80 ADD SWAP1 LOG1 POP POP POP POP JUMP JUMPDEST PUSH1 0x0 DUP2 DUP2 SLOAD DUP2 LT PUSH2 0xC33 JUMPI PUSH1 0x0 DUP1 REVERT JUMPDEST PUSH1 0x0 SWAP2 DUP3 MSTORE PUSH1 0x20 SWAP1 SWAP2 KECCAK256 PUSH1 0x2 SWAP1 SWAP2 MUL ADD DUP1 SLOAD PUSH1 0x1 SWAP1 SWAP2 ADD SLOAD PUSH5 0xFFFFFFFFFF DUP3 AND SWAP3 POP PUSH12 0xFFFFFFFFFFFFFFFFFFFFFFFF PUSH6 0x10000000000 DUP4 DIV DUP2 AND SWAP3 PUSH18 0x10000000000000000000000000000000000 SWAP1 DIV AND SWAP1 PUSH20 0xFFFFFFFFFFFFFFFFFFFFFFFFFFFFFFFFFFFFFFFF AND DUP5 JUMP JUMPDEST PUSH1 0x40 MLOAD PUSH32 0xAC4E967500000000000000000000000000000000000000000000000000000000 DUP2 MSTORE ADDRESS PUSH1 0x4 DUP3 ADD MSTORE PUSH20 0xFFFFFFFFFFFFFFFFFFFFFFFFFFFFFFFFFFFFFFFF PUSH32 0x0 DUP2 AND PUSH1 0x24 DUP4 ADD MSTORE PUSH1 0x0 SWAP2 DUP3 SWAP2 PUSH32 0x0 AND SWAP1 PUSH4 0xAC4E9675 SWAP1 PUSH1 0x44 ADD PUSH1 0x40 DUP1 MLOAD DUP1 DUP4 SUB DUP2 DUP7 GAS STATICCALL ISZERO DUP1 ISZERO PUSH2 0xD54 JUMPI RETURNDATASIZE PUSH1 0x0 DUP1 RETURNDATACOPY RETURNDATASIZE PUSH1 0x0 REVERT JUMPDEST POP POP POP POP PUSH1 0x40 MLOAD RETURNDATASIZE PUSH1 0x1F NOT PUSH1 0x1F DUP3 ADD AND DUP3 ADD DUP1 PUSH1 0x40 MSTORE POP DUP2 ADD SWAP1 PUSH2 0xD78 SWAP2 SWAP1 PUSH2 0x10B8 JUMP JUMPDEST SWAP1 SWAP4 SWAP1 SWAP3 POP SWAP1 POP JUMP JUMPDEST PUSH1 0x0 DUP2 PUSH1 0x0 SUB PUSH2 0xD9C JUMPI PUSH2 0xD95 DUP3 DUP5 PUSH2 0x1054 JUMP JUMPDEST SWAP1 POP PUSH2 0xDCE JUMP JUMPDEST DUP3 ISZERO PUSH2 0xDC8 JUMPI DUP2 PUSH2 0xDAE PUSH1 0x1 DUP6 PUSH2 0x1017 JUMP JUMPDEST PUSH2 0xDB8 SWAP2 SWAP1 PUSH2 0x1054 JUMP JUMPDEST PUSH2 0xDC3 SWAP1 PUSH1 0x1 PUSH2 0x1041 JUMP JUMPDEST PUSH2 0xDCB JUMP JUMPDEST PUSH1 0x0 JUMPDEST SWAP1 POP JUMPDEST SWAP3 SWAP2 POP POP JUMP JUMPDEST PUSH1 0x0 PUSH1 0x20 DUP3 DUP5 SUB SLT ISZERO PUSH2 0xDE6 JUMPI PUSH1 0x0 DUP1 REVERT JUMPDEST POP CALLDATALOAD SWAP2 SWAP1 POP JUMP JUMPDEST PUSH32 0x4E487B7100000000000000000000000000000000000000000000000000000000 PUSH1 0x0 MSTORE PUSH1 0x41 PUSH1 0x4 MSTORE PUSH1 0x24 PUSH1 0x0 REVERT JUMPDEST PUSH1 0x40 DUP1 MLOAD SWAP1 DUP2 ADD PUSH8 0xFFFFFFFFFFFFFFFF DUP2 GT DUP3 DUP3 LT OR ISZERO PUSH2 0xE3F JUMPI PUSH2 0xE3F PUSH2 0xDED JUMP JUMPDEST PUSH1 0x40 MSTORE SWAP1 JUMP JUMPDEST PUSH1 0x40 MLOAD PUSH1 0x1F DUP3 ADD PUSH32 0xFFFFFFFFFFFFFFFFFFFFFFFFFFFFFFFFFFFFFFFFFFFFFFFFFFFFFFFFFFFFFFE0 AND DUP2 ADD PUSH8 0xFFFFFFFFFFFFFFFF DUP2 GT DUP3 DUP3 LT OR ISZERO PUSH2 0xE8C JUMPI PUSH2 0xE8C PUSH2 0xDED JUMP JUMPDEST PUSH1 0x40 MSTORE SWAP2 SWAP1 POP JUMP JUMPDEST DUP1 MLOAD PUSH16 0xFFFFFFFFFFFFFFFFFFFFFFFFFFFFFFFF DUP2 AND DUP2 EQ PUSH2 0xEB4 JUMPI PUSH1 0x0 DUP1 REVERT JUMPDEST SWAP2 SWAP1 POP JUMP JUMPDEST PUSH1 0x0 PUSH1 0x20 DUP3 DUP5 SUB SLT ISZERO PUSH2 0xECB JUMPI PUSH1 0x0 DUP1 REVERT JUMPDEST DUP2 MLOAD PUSH8 0xFFFFFFFFFFFFFFFF DUP2 GT ISZERO PUSH2 0xEE2 JUMPI PUSH1 0x0 DUP1 REVERT JUMPDEST DUP3 ADD PUSH1 0x1F DUP2 ADD DUP5 SGT PUSH2 0xEF3 JUMPI PUSH1 0x0 DUP1 REVERT JUMPDEST DUP1 MLOAD PUSH8 0xFFFFFFFFFFFFFFFF DUP2 GT ISZERO PUSH2 0xF0D JUMPI PUSH2 0xF0D PUSH2 0xDED JUMP JUMPDEST PUSH2 0xF1C PUSH1 0x20 DUP3 PUSH1 0x5 SHL ADD PUSH2 0xE45 JUMP JUMPDEST DUP1 DUP3 DUP3 MSTORE PUSH1 0x20 DUP3 ADD SWAP2 POP PUSH1 0x20 DUP4 PUSH1 0x6 SHL DUP6 ADD ADD SWAP3 POP DUP7 DUP4 GT ISZERO PUSH2 0xF3E JUMPI PUSH1 0x0 DUP1 REVERT JUMPDEST PUSH1 0x20 DUP5 ADD SWAP4 POP JUMPDEST DUP3 DUP5 LT ISZERO PUSH2 0xF96 JUMPI PUSH1 0x40 DUP5 DUP9 SUB SLT ISZERO PUSH2 0xF5D JUMPI PUSH1 0x0 DUP1 REVERT JUMPDEST PUSH2 0xF65 PUSH2 0xE1C JUMP JUMPDEST PUSH2 0xF6E DUP6 PUSH2 0xE94 JUMP JUMPDEST DUP2 MSTORE PUSH2 0xF7C PUSH1 0x20 DUP7 ADD PUSH2 0xE94 JUMP JUMPDEST PUSH1 0x20 DUP3 ADD MSTORE DUP1 DUP4 MSTORE POP PUSH1 0x20 DUP3 ADD SWAP2 POP PUSH1 0x40 DUP5 ADD SWAP4 POP PUSH2 0xF45 JUMP JUMPDEST SWAP7 SWAP6 POP POP POP POP POP POP JUMP JUMPDEST PUSH1 0x0 PUSH1 0x20 DUP3 DUP5 SUB SLT ISZERO PUSH2 0xFB2 JUMPI PUSH1 0x0 DUP1 REVERT JUMPDEST POP MLOAD SWAP2 SWAP1 POP JUMP JUMPDEST PUSH32 0x4E487B7100000000000000000000000000000000000000000000000000000000 PUSH1 0x0 MSTORE PUSH1 0x32 PUSH1 0x4 MSTORE PUSH1 0x24 PUSH1 0x0 REVERT JUMPDEST PUSH32 0x4E487B7100000000000000000000000000000000000000000000000000000000 PUSH1 0x0 MSTORE PUSH1 0x11 PUSH1 0x4 MSTORE PUSH1 0x24 PUSH1 0x0 REVERT JUMPDEST DUP2 DUP2 SUB DUP2 DUP2 GT ISZERO PUSH2 0xDCE JUMPI PUSH2 0xDCE PUSH2 0xFE8 JUMP JUMPDEST DUP1 DUP3 MUL DUP2 ISZERO DUP3 DUP3 DIV DUP5 EQ OR PUSH2 0xDCE JUMPI PUSH2 0xDCE PUSH2 0xFE8 JUMP JUMPDEST DUP1 DUP3 ADD DUP1 DUP3 GT ISZERO PUSH2 0xDCE JUMPI PUSH2 0xDCE PUSH2 0xFE8 JUMP JUMPDEST PUSH1 0x0 DUP3 PUSH2 0x108A JUMPI PUSH32 0x4E487B7100000000000000000000000000000000000000000000000000000000 PUSH1 0x0 MSTORE PUSH1 0x12 PUSH1 0x4 MSTORE PUSH1 0x24 PUSH1 0x0 REVERT JUMPDEST POP DIV SWAP1 JUMP JUMPDEST PUSH1 0x0 PUSH1 0x20 DUP3 DUP5 SUB SLT ISZERO PUSH2 0x10A1 JUMPI PUSH1 0x0 DUP1 REVERT JUMPDEST DUP2 MLOAD DUP1 ISZERO ISZERO DUP2 EQ PUSH2 0x10B1 JUMPI PUSH1 0x0 DUP1 REVERT JUMPDEST SWAP4 SWAP3 POP POP POP JUMP JUMPDEST PUSH1 0x0 DUP1 PUSH1 0x40 DUP4 DUP6 SUB SLT ISZERO PUSH2 0x10CB JUMPI PUSH1 0x0 DUP1 REVERT JUMPDEST POP POP DUP1 MLOAD PUSH1 0x20 SWAP1 SWAP2 ADD MLOAD SWAP1 SWAP3 SWAP1 SWAP2 POP JUMP INVALID LOG2 PUSH5 0x6970667358 0x22 SLT KECCAK256 0x24 PUSH5 0xD12D97F66A 0x4F 0x26 SSTORE RETURNDATASIZE 0xCA SWAP7 0xC6 0x2F 0xB2 SWAP15 SWAP10 0xBA 0x2A RETURNDATASIZE 0xF8 CREATE LOG3 0xA7 0xE3 0xA6 PUSH28 0x4786A18464736F6C634300081C003300000000000000000000000000 "
        },
        "methodIdentifiers": {
          "BURN_ADDRESS()": "fccc2813",
          "bond()": "64c9ec6f",
          "burnHistory(uint256)": "b991118f",
          "getStats()": "c59d4847",
          "getTokensForReserve(uint256)": "65a948e7",
          "mfer()": "a15e0c61",
          "moon()": "b9094851",
          "moonfer()": "04a40d59",
          "totalMferCollected()": "a56cc433",
          "totalMoonferBurned()": "aa4d0887"
        }
      }
    }
  }
}